{
  "address": "0xaF0d149Af20EABBC7F73DdE7a4F4c1380BD8b764",
  "abi": [
    {
      "inputs": [
        {
          "internalType": "address",
          "name": "_VRFCoordinator",
          "type": "address"
        },
        {
          "internalType": "address",
          "name": "_LinkToken",
          "type": "address"
        },
        {
          "internalType": "bytes32",
          "name": "_keyHash",
          "type": "bytes32"
        },
        {
          "internalType": "uint256",
          "name": "_fee",
          "type": "uint256"
        }
      ],
      "stateMutability": "nonpayable",
      "type": "constructor"
    },
    {
      "anonymous": false,
      "inputs": [
        {
          "indexed": true,
          "internalType": "address",
          "name": "owner",
          "type": "address"
        },
        {
          "indexed": true,
          "internalType": "address",
          "name": "approved",
          "type": "address"
        },
        {
          "indexed": true,
          "internalType": "uint256",
          "name": "tokenId",
          "type": "uint256"
        }
      ],
      "name": "Approval",
      "type": "event"
    },
    {
      "anonymous": false,
      "inputs": [
        {
          "indexed": true,
          "internalType": "address",
          "name": "owner",
          "type": "address"
        },
        {
          "indexed": true,
          "internalType": "address",
          "name": "operator",
          "type": "address"
        },
        {
          "indexed": false,
          "internalType": "bool",
          "name": "approved",
          "type": "bool"
        }
      ],
      "name": "ApprovalForAll",
      "type": "event"
    },
    {
      "anonymous": false,
      "inputs": [
        {
          "indexed": true,
          "internalType": "address",
          "name": "previousOwner",
          "type": "address"
        },
        {
          "indexed": true,
          "internalType": "address",
          "name": "newOwner",
          "type": "address"
        }
      ],
      "name": "OwnershipTransferred",
      "type": "event"
    },
    {
      "anonymous": false,
      "inputs": [
        {
          "indexed": true,
          "internalType": "address",
          "name": "from",
          "type": "address"
        },
        {
          "indexed": true,
          "internalType": "address",
          "name": "to",
          "type": "address"
        },
        {
          "indexed": true,
          "internalType": "uint256",
          "name": "tokenId",
          "type": "uint256"
        }
      ],
      "name": "Transfer",
      "type": "event"
    },
    {
      "anonymous": false,
      "inputs": [
        {
          "indexed": true,
          "internalType": "uint256",
          "name": "tokenId",
          "type": "uint256"
        },
        {
          "indexed": false,
          "internalType": "string",
          "name": "tokenURI",
          "type": "string"
        }
      ],
      "name": "createdRandomSVG",
      "type": "event"
    },
    {
      "anonymous": false,
      "inputs": [
        {
          "indexed": true,
          "internalType": "uint256",
          "name": "tokenId",
          "type": "uint256"
        },
        {
          "indexed": true,
          "internalType": "uint256",
          "name": "randomNumber",
          "type": "uint256"
        }
      ],
      "name": "createdUnfinishedSVG",
      "type": "event"
    },
    {
      "anonymous": false,
      "inputs": [
        {
          "indexed": true,
          "internalType": "bytes32",
          "name": "requestId",
          "type": "bytes32"
        },
        {
          "indexed": true,
          "internalType": "uint256",
          "name": "tokenId",
          "type": "uint256"
        }
      ],
      "name": "requestedRandomSVG",
      "type": "event"
    },
    {
      "inputs": [],
      "name": "_recipient",
      "outputs": [
        {
          "internalType": "address",
          "name": "",
          "type": "address"
        }
      ],
      "stateMutability": "view",
      "type": "function"
    },
    {
      "inputs": [
        {
          "internalType": "address",
          "name": "to",
          "type": "address"
        },
        {
          "internalType": "uint256",
          "name": "tokenId",
          "type": "uint256"
        }
      ],
      "name": "approve",
      "outputs": [],
      "stateMutability": "nonpayable",
      "type": "function"
    },
    {
      "inputs": [
        {
          "internalType": "address",
          "name": "owner",
          "type": "address"
        }
      ],
      "name": "balanceOf",
      "outputs": [
        {
          "internalType": "uint256",
          "name": "",
          "type": "uint256"
        }
      ],
      "stateMutability": "view",
      "type": "function"
    },
    {
      "inputs": [
        {
          "internalType": "uint256",
          "name": "",
          "type": "uint256"
        }
      ],
      "name": "colors",
      "outputs": [
        {
          "internalType": "string",
          "name": "",
          "type": "string"
        }
      ],
      "stateMutability": "view",
      "type": "function"
    },
    {
      "inputs": [],
      "name": "create",
      "outputs": [
        {
          "internalType": "bytes32",
          "name": "requestId",
          "type": "bytes32"
        }
      ],
      "stateMutability": "payable",
      "type": "function"
    },
    {
      "inputs": [
        {
          "internalType": "uint256",
          "name": "numTokens",
          "type": "uint256"
        }
      ],
      "name": "createtBatch",
      "outputs": [
        {
          "internalType": "bytes32",
          "name": "requestId",
          "type": "bytes32"
        }
      ],
      "stateMutability": "payable",
      "type": "function"
    },
    {
      "inputs": [
        {
          "internalType": "uint256",
          "name": "quantity",
          "type": "uint256"
        }
      ],
      "name": "devMint",
      "outputs": [
        {
          "internalType": "bytes32",
          "name": "requestId",
          "type": "bytes32"
        }
      ],
      "stateMutability": "nonpayable",
      "type": "function"
    },
    {
      "inputs": [],
      "name": "fee",
      "outputs": [
        {
          "internalType": "uint256",
          "name": "",
          "type": "uint256"
        }
      ],
      "stateMutability": "view",
      "type": "function"
    },
    {
      "inputs": [
        {
          "internalType": "uint256",
          "name": "_tokenId",
          "type": "uint256"
        }
      ],
      "name": "finishMint",
      "outputs": [],
      "stateMutability": "nonpayable",
      "type": "function"
    },
    {
      "inputs": [
        {
          "internalType": "uint256",
          "name": "_firstTokenId",
          "type": "uint256"
        },
        {
          "internalType": "uint256",
          "name": "_lastTokenId",
          "type": "uint256"
        }
      ],
      "name": "finishMintBatch",
      "outputs": [],
      "stateMutability": "nonpayable",
      "type": "function"
    },
    {
      "inputs": [
        {
          "internalType": "string",
          "name": "imageURI",
          "type": "string"
        }
      ],
      "name": "formatTokenURI",
      "outputs": [
        {
          "internalType": "string",
          "name": "",
          "type": "string"
        }
      ],
      "stateMutability": "pure",
      "type": "function"
    },
    {
      "inputs": [
        {
          "internalType": "uint256",
          "name": "tokenId",
          "type": "uint256"
        }
      ],
      "name": "getApproved",
      "outputs": [
        {
          "internalType": "address",
          "name": "",
          "type": "address"
        }
      ],
      "stateMutability": "view",
      "type": "function"
    },
    {
      "inputs": [
        {
          "internalType": "address",
          "name": "owner",
          "type": "address"
        },
        {
          "internalType": "address",
          "name": "operator",
          "type": "address"
        }
      ],
      "name": "isApprovedForAll",
      "outputs": [
        {
          "internalType": "bool",
          "name": "",
          "type": "bool"
        }
      ],
      "stateMutability": "view",
      "type": "function"
    },
    {
      "inputs": [],
      "name": "keyHash",
      "outputs": [
        {
          "internalType": "bytes32",
          "name": "",
          "type": "bytes32"
        }
      ],
      "stateMutability": "view",
      "type": "function"
    },
    {
      "inputs": [],
      "name": "maxAmount",
      "outputs": [
        {
          "internalType": "uint256",
          "name": "",
          "type": "uint256"
        }
      ],
      "stateMutability": "view",
      "type": "function"
    },
    {
      "inputs": [],
      "name": "maxPathCommands",
      "outputs": [
        {
          "internalType": "uint256",
          "name": "",
          "type": "uint256"
        }
      ],
      "stateMutability": "view",
      "type": "function"
    },
    {
      "inputs": [],
      "name": "maxPaths",
      "outputs": [
        {
          "internalType": "uint256",
          "name": "",
          "type": "uint256"
        }
      ],
      "stateMutability": "view",
      "type": "function"
    },
    {
      "inputs": [],
      "name": "name",
      "outputs": [
        {
          "internalType": "string",
          "name": "",
          "type": "string"
        }
      ],
      "stateMutability": "view",
      "type": "function"
    },
    {
      "inputs": [],
      "name": "owner",
      "outputs": [
        {
          "internalType": "address",
          "name": "",
          "type": "address"
        }
      ],
      "stateMutability": "view",
      "type": "function"
    },
    {
      "inputs": [
        {
          "internalType": "uint256",
          "name": "tokenId",
          "type": "uint256"
        }
      ],
      "name": "ownerOf",
      "outputs": [
        {
          "internalType": "address",
          "name": "",
          "type": "address"
        }
      ],
      "stateMutability": "view",
      "type": "function"
    },
    {
      "inputs": [
        {
          "internalType": "uint256",
          "name": "",
          "type": "uint256"
        }
      ],
      "name": "pathCommands",
      "outputs": [
        {
          "internalType": "string",
          "name": "",
          "type": "string"
        }
      ],
      "stateMutability": "view",
      "type": "function"
    },
    {
      "inputs": [],
      "name": "price",
      "outputs": [
        {
          "internalType": "uint256",
          "name": "",
          "type": "uint256"
        }
      ],
      "stateMutability": "view",
      "type": "function"
    },
    {
      "inputs": [
        {
          "internalType": "bytes32",
          "name": "requestId",
          "type": "bytes32"
        },
        {
          "internalType": "uint256",
          "name": "randomness",
          "type": "uint256"
        }
      ],
      "name": "rawFulfillRandomness",
      "outputs": [],
      "stateMutability": "nonpayable",
      "type": "function"
    },
    {
      "inputs": [],
      "name": "renounceOwnership",
      "outputs": [],
      "stateMutability": "nonpayable",
      "type": "function"
    },
    {
      "inputs": [
        {
          "internalType": "uint256",
          "name": "_tokenId",
          "type": "uint256"
        },
        {
          "internalType": "uint256",
          "name": "_salePrice",
          "type": "uint256"
        }
      ],
      "name": "royaltyInfo",
      "outputs": [
        {
          "internalType": "address",
          "name": "receiver",
          "type": "address"
        },
        {
          "internalType": "uint256",
          "name": "royaltyAmount",
          "type": "uint256"
        }
      ],
      "stateMutability": "view",
      "type": "function"
    },
    {
      "inputs": [
        {
          "internalType": "address",
          "name": "from",
          "type": "address"
        },
        {
          "internalType": "address",
          "name": "to",
          "type": "address"
        },
        {
          "internalType": "uint256",
          "name": "tokenId",
          "type": "uint256"
        }
      ],
      "name": "safeTransferFrom",
      "outputs": [],
      "stateMutability": "nonpayable",
      "type": "function"
    },
    {
      "inputs": [
        {
          "internalType": "address",
          "name": "from",
          "type": "address"
        },
        {
          "internalType": "address",
          "name": "to",
          "type": "address"
        },
        {
          "internalType": "uint256",
          "name": "tokenId",
          "type": "uint256"
        },
        {
          "internalType": "bytes",
          "name": "_data",
          "type": "bytes"
        }
      ],
      "name": "safeTransferFrom",
      "outputs": [],
      "stateMutability": "nonpayable",
      "type": "function"
    },
    {
      "inputs": [
        {
          "internalType": "address",
          "name": "operator",
          "type": "address"
        },
        {
          "internalType": "bool",
          "name": "approved",
          "type": "bool"
        }
      ],
      "name": "setApprovalForAll",
      "outputs": [],
      "stateMutability": "nonpayable",
      "type": "function"
    },
    {
      "inputs": [
        {
          "internalType": "uint256",
          "name": "_fee",
          "type": "uint256"
        }
      ],
      "name": "setVRFFee",
      "outputs": [],
      "stateMutability": "nonpayable",
      "type": "function"
    },
    {
      "inputs": [],
      "name": "size",
      "outputs": [
        {
          "internalType": "uint256",
          "name": "",
          "type": "uint256"
        }
      ],
      "stateMutability": "view",
      "type": "function"
    },
    {
      "inputs": [
        {
          "internalType": "bytes4",
          "name": "interfaceId",
          "type": "bytes4"
        }
      ],
      "name": "supportsInterface",
      "outputs": [
        {
          "internalType": "bool",
          "name": "",
          "type": "bool"
        }
      ],
      "stateMutability": "view",
      "type": "function"
    },
    {
      "inputs": [
        {
          "internalType": "string",
          "name": "svg",
          "type": "string"
        }
      ],
      "name": "svgToImageURI",
      "outputs": [
        {
          "internalType": "string",
          "name": "",
          "type": "string"
        }
      ],
      "stateMutability": "pure",
      "type": "function"
    },
    {
      "inputs": [],
      "name": "symbol",
      "outputs": [
        {
          "internalType": "string",
          "name": "",
          "type": "string"
        }
      ],
      "stateMutability": "view",
      "type": "function"
    },
    {
      "inputs": [],
      "name": "tokenCounter",
      "outputs": [
        {
          "internalType": "uint256",
          "name": "",
          "type": "uint256"
        }
      ],
      "stateMutability": "view",
      "type": "function"
    },
    {
      "inputs": [
        {
          "internalType": "uint256",
          "name": "tokenId",
          "type": "uint256"
        }
      ],
      "name": "tokenURI",
      "outputs": [
        {
          "internalType": "string",
          "name": "",
          "type": "string"
        }
      ],
      "stateMutability": "view",
      "type": "function"
    },
    {
      "inputs": [],
      "name": "totalSupply",
      "outputs": [
        {
          "internalType": "uint256",
          "name": "",
          "type": "uint256"
        }
      ],
      "stateMutability": "view",
      "type": "function"
    },
    {
      "inputs": [
        {
          "internalType": "address",
          "name": "from",
          "type": "address"
        },
        {
          "internalType": "address",
          "name": "to",
          "type": "address"
        },
        {
          "internalType": "uint256",
          "name": "tokenId",
          "type": "uint256"
        }
      ],
      "name": "transferFrom",
      "outputs": [],
      "stateMutability": "nonpayable",
      "type": "function"
    },
    {
      "inputs": [
        {
          "internalType": "address",
          "name": "newOwner",
          "type": "address"
        }
      ],
      "name": "transferOwnership",
      "outputs": [],
      "stateMutability": "nonpayable",
      "type": "function"
    },
    {
      "inputs": [],
      "name": "withdraw",
      "outputs": [],
      "stateMutability": "payable",
      "type": "function"
    }
  ],
  "transactionHash": "0x0f17093f3da35d2bcfd435b75e2b224ba0388ce69b26d907c1b0cd23e2ffc011",
  "args": [
    "0x8C7382F9D8f56b33781fE506E897a4F1e2d17255",
    "0x326C977E6efc84E512bB9C30f76E30c160eD06FB",
    "0x6e75b569a01ef56d18cab6a8e71e6600d6ce853834d4a5748b720d06f878b3a4",
    "100000000000000"
  ],
  "numDeployments": 7,
  "solcInputHash": "7fc9d75843a27f055a8fe1aa6d6f2a04",
  "bytecode": "0x610120604052662386f26fc10000600c556032600e55601460c090815250600a60e0908152506103e86101009081525060405180604001604052806040518060400160405280600181526020017f4d0000000000000000000000000000000000000000000000000000000000000081525081526020016040518060400160405280600181526020017f4c00000000000000000000000000000000000000000000000000000000000000815250815250600f906002620000c092919062000583565b506040518061010001604052806040518060400160405280600381526020017f726564000000000000000000000000000000000000000000000000000000000081525081526020016040518060400160405280600581526020017f677265656e00000000000000000000000000000000000000000000000000000081525081526020016040518060400160405280600481526020017f626c75650000000000000000000000000000000000000000000000000000000081525081526020016040518060400160405280600581526020017f626c61636b00000000000000000000000000000000000000000000000000000081525081526020016040518060400160405280600681526020017f707572706c65000000000000000000000000000000000000000000000000000081525081526020016040518060400160405280600681526020017f6f72616e6765000000000000000000000000000000000000000000000000000081525081526020016040518060400160405280600581526020017f62726f776e00000000000000000000000000000000000000000000000000000081525081526020016040518060400160405280600781526020017f6d6167656e7461000000000000000000000000000000000000000000000000008152508152506010906008620002b5929190620005ea565b50348015620002c357600080fd5b50604051620064c7380380620064c78339818101604052810190620002e99190620007b4565b83836040518060400160405280601081526020017f52616e646f6d4f6e436861696e535647000000000000000000000000000000008152506040518060400160405280600581526020017f524f53564700000000000000000000000000000000000000000000000000000081525081600090805190602001906200036f92919062000651565b5080600190805190602001906200038892919062000651565b5050508173ffffffffffffffffffffffffffffffffffffffff1660a08173ffffffffffffffffffffffffffffffffffffffff1660601b815250508073ffffffffffffffffffffffffffffffffffffffff1660808173ffffffffffffffffffffffffffffffffffffffff1660601b8152505050506200041b6200040f6200048b60201b60201c565b6200049360201b60201c565b8160098190555080600a819055506000600b81905550620004416200055960201b60201c565b600d60006101000a81548173ffffffffffffffffffffffffffffffffffffffff021916908373ffffffffffffffffffffffffffffffffffffffff160217905550505050506200091b565b600033905090565b6000600860009054906101000a900473ffffffffffffffffffffffffffffffffffffffff16905081600860006101000a81548173ffffffffffffffffffffffffffffffffffffffff021916908373ffffffffffffffffffffffffffffffffffffffff1602179055508173ffffffffffffffffffffffffffffffffffffffff168173ffffffffffffffffffffffffffffffffffffffff167f8be0079c531659141344cd1fd0a4f28419497f9722a3daafe3b4186f6b6457e060405160405180910390a35050565b6000600860009054906101000a900473ffffffffffffffffffffffffffffffffffffffff16905090565b828054828255906000526020600020908101928215620005d7579160200282015b82811115620005d6578251829080519060200190620005c592919062000651565b5091602001919060010190620005a4565b5b509050620005e69190620006e2565b5090565b8280548282559060005260206000209081019282156200063e579160200282015b828111156200063d5782518290805190602001906200062c92919062000651565b50916020019190600101906200060b565b5b5090506200064d9190620006e2565b5090565b8280546200065f9062000868565b90600052602060002090601f016020900481019282620006835760008555620006cf565b82601f106200069e57805160ff1916838001178555620006cf565b82800160010185558215620006cf579182015b82811115620006ce578251825591602001919060010190620006b1565b5b509050620006de91906200070a565b5090565b5b80821115620007065760008181620006fc919062000729565b50600101620006e3565b5090565b5b80821115620007255760008160009055506001016200070b565b5090565b508054620007379062000868565b6000825580601f106200074b57506200076c565b601f0160209004906000526020600020908101906200076b91906200070a565b5b50565b6000815190506200078081620008cd565b92915050565b6000815190506200079781620008e7565b92915050565b600081519050620007ae8162000901565b92915050565b60008060008060808587031215620007cb57600080fd5b6000620007db878288016200076f565b9450506020620007ee878288016200076f565b9350506040620008018782880162000786565b925050606062000814878288016200079d565b91505092959194509250565b60006200082d826200083e565b9050919050565b6000819050919050565b600073ffffffffffffffffffffffffffffffffffffffff82169050919050565b6000819050919050565b600060028204905060018216806200088157607f821691505b602082108114156200089857620008976200089e565b5b50919050565b7f4e487b7100000000000000000000000000000000000000000000000000000000600052602260045260246000fd5b620008d88162000820565b8114620008e457600080fd5b50565b620008f28162000834565b8114620008fe57600080fd5b50565b6200090c816200085e565b81146200091857600080fd5b50565b60805160601c60a05160601c60c05160e05161010051615b1b620009ac60003960008181611568015281816125c6015281816125ef01528181612f11015281816134060152818161342a0152818161348d01526134b30152600081816119c80152612e8f01526000818161094c015261258b0152600081816114cc0152612461015260006124250152615b1b6000f3fe6080604052600436106102305760003560e01c806371aee1931161012e578063b88d4fde116100ab578063ddca3f431161006f578063ddca3f4314610870578063df9bcd241461089b578063e985e9c5146108c6578063efc81a8c14610903578063f2fde38b1461092157610230565b8063b88d4fde14610777578063bd11f69d146107a0578063c87b56dd146107dd578063d082e3811461081a578063d4cca5f11461084557610230565b806395d89b41116100f257806395d89b411461069f5780639a365b87146106ca578063a035b1fe146106fa578063a22cb46514610725578063b82361c61461074e57610230565b806371aee193146105a65780638da5cb5b146105e357806394985ddd1461060e578063949d225d14610637578063955968d41461066257610230565b806330da44cb116101bc57806361728f391161018057806361728f39146104c1578063624194c7146104ec5780636352211e1461051557806370a0823114610552578063715018a61461058f57610230565b806330da44cb146103fd578063375a069a146104265780633ccfd60b1461046357806342842e0e1461046d5780635f48f3931461049657610230565b8063095ea7b311610203578063095ea7b31461030557806318160ddd1461032e57806323b872dd146103595780632a55205a1461038257806330d871c6146103c057610230565b806301f920c61461023557806301ffc9a71461026057806306fdde031461029d578063081812fc146102c8575b600080fd5b34801561024157600080fd5b5061024a61094a565b6040516102579190614bc7565b60405180910390f35b34801561026c57600080fd5b5061028760048036038101906102829190613d54565b61096e565b60405161029491906147a1565b60405180910390f35b3480156102a957600080fd5b506102b26109e8565b6040516102bf9190614845565b60405180910390f35b3480156102d457600080fd5b506102ef60048036038101906102ea9190613de7565b610a7a565b6040516102fc91906146d3565b60405180910390f35b34801561031157600080fd5b5061032c60048036038101906103279190613cb3565b610aff565b005b34801561033a57600080fd5b50610343610c17565b6040516103509190614bc7565b60405180910390f35b34801561036557600080fd5b50610380600480360381019061037b9190613bad565b610c21565b005b34801561038e57600080fd5b506103a960048036038101906103a49190613e10565b610c81565b6040516103b792919061473a565b60405180910390f35b3480156103cc57600080fd5b506103e760048036038101906103e29190613da6565b610ccd565b6040516103f49190614845565b60405180910390f35b34801561040957600080fd5b50610424600480360381019061041f9190613de7565b610d1d565b005b34801561043257600080fd5b5061044d60048036038101906104489190613de7565b610da3565b60405161045a91906147bc565b60405180910390f35b61046b610f5c565b005b34801561047957600080fd5b50610494600480360381019061048f9190613bad565b611028565b005b3480156104a257600080fd5b506104ab611048565b6040516104b89190614bc7565b60405180910390f35b3480156104cd57600080fd5b506104d661104e565b6040516104e391906147bc565b60405180910390f35b3480156104f857600080fd5b50610513600480360381019061050e9190613de7565b611054565b005b34801561052157600080fd5b5061053c60048036038101906105379190613de7565b61125e565b60405161054991906146d3565b60405180910390f35b34801561055e57600080fd5b5061057960048036038101906105749190613b48565b611310565b6040516105869190614bc7565b60405180910390f35b34801561059b57600080fd5b506105a46113c8565b005b3480156105b257600080fd5b506105cd60048036038101906105c89190613da6565b611450565b6040516105da9190614845565b60405180910390f35b3480156105ef57600080fd5b506105f86114a0565b60405161060591906146d3565b60405180910390f35b34801561061a57600080fd5b5061063560048036038101906106309190613d18565b6114ca565b005b34801561064357600080fd5b5061064c611566565b6040516106599190614bc7565b60405180910390f35b34801561066e57600080fd5b5061068960048036038101906106849190613de7565b61158a565b6040516106969190614845565b60405180910390f35b3480156106ab57600080fd5b506106b4611636565b6040516106c19190614845565b60405180910390f35b6106e460048036038101906106df9190613de7565b6116c8565b6040516106f191906147bc565b60405180910390f35b34801561070657600080fd5b5061070f6117ec565b60405161071c9190614bc7565b60405180910390f35b34801561073157600080fd5b5061074c60048036038101906107479190613c77565b6117f2565b005b34801561075a57600080fd5b5061077560048036038101906107709190613e10565b611808565b005b34801561078357600080fd5b5061079e60048036038101906107999190613bfc565b611874565b005b3480156107ac57600080fd5b506107c760048036038101906107c29190613de7565b6118d6565b6040516107d49190614845565b60405180910390f35b3480156107e957600080fd5b5061080460048036038101906107ff9190613de7565b611982565b6040516108119190614845565b60405180910390f35b34801561082657600080fd5b5061082f611994565b60405161083c9190614bc7565b60405180910390f35b34801561085157600080fd5b5061085a61199a565b60405161086791906146d3565b60405180910390f35b34801561087c57600080fd5b506108856119c0565b6040516108929190614bc7565b60405180910390f35b3480156108a757600080fd5b506108b06119c6565b6040516108bd9190614bc7565b60405180910390f35b3480156108d257600080fd5b506108ed60048036038101906108e89190613b71565b6119ea565b6040516108fa91906147a1565b60405180910390f35b61090b611a7e565b60405161091891906147bc565b60405180910390f35b34801561092d57600080fd5b5061094860048036038101906109439190613b48565b611c41565b005b7f000000000000000000000000000000000000000000000000000000000000000081565b60007f2a55205a000000000000000000000000000000000000000000000000000000007bffffffffffffffffffffffffffffffffffffffffffffffffffffffff1916827bffffffffffffffffffffffffffffffffffffffffffffffffffffffff191614806109e157506109e082611d39565b5b9050919050565b6060600080546109f790614eee565b80601f0160208091040260200160405190810160405280929190818152602001828054610a2390614eee565b8015610a705780601f10610a4557610100808354040283529160200191610a70565b820191906000526020600020905b815481529060010190602001808311610a5357829003601f168201915b5050505050905090565b6000610a8582611e1b565b610ac4576040517f08c379a0000000000000000000000000000000000000000000000000000000008152600401610abb90614ac7565b60405180910390fd5b6004600083815260200190815260200160002060009054906101000a900473ffffffffffffffffffffffffffffffffffffffff169050919050565b6000610b0a8261125e565b90508073ffffffffffffffffffffffffffffffffffffffff168373ffffffffffffffffffffffffffffffffffffffff161415610b7b576040517f08c379a0000000000000000000000000000000000000000000000000000000008152600401610b7290614b67565b60405180910390fd5b8073ffffffffffffffffffffffffffffffffffffffff16610b9a611e87565b73ffffffffffffffffffffffffffffffffffffffff161480610bc95750610bc881610bc3611e87565b6119ea565b5b610c08576040517f08c379a0000000000000000000000000000000000000000000000000000000008152600401610bff906149e7565b60405180910390fd5b610c128383611e8f565b505050565b6000600b54905090565b610c32610c2c611e87565b82611f48565b610c71576040517f08c379a0000000000000000000000000000000000000000000000000000000008152600401610c6890614b87565b60405180910390fd5b610c7c838383612026565b505050565b600080600d60009054906101000a900473ffffffffffffffffffffffffffffffffffffffff166127106103e885610cb89190614d93565b610cc29190614d62565b915091509250929050565b6060610cf782604051602001610ce391906144fd565b604051602081830303815290604052612282565b604051602001610d079190614685565b6040516020818303038152906040529050919050565b610d25611e87565b73ffffffffffffffffffffffffffffffffffffffff16610d436114a0565b73ffffffffffffffffffffffffffffffffffffffff1614610d99576040517f08c379a0000000000000000000000000000000000000000000000000000000008152600401610d9090614ae7565b60405180910390fd5b80600a8190555050565b6000610dad611e87565b73ffffffffffffffffffffffffffffffffffffffff16610dcb6114a0565b73ffffffffffffffffffffffffffffffffffffffff1614610e21576040517f08c379a0000000000000000000000000000000000000000000000000000000008152600401610e1890614ae7565b60405180910390fd5b60005b82811015610f5657610e3a600954600a54612421565b9150336011600084815260200190815260200160002060006101000a81548173ffffffffffffffffffffffffffffffffffffffff021916908373ffffffffffffffffffffffffffffffffffffffff1602179055506000600b5490508060126000858152602001908152602001600020819055506001600b54610ebc9190614cd5565b600b81905550336014600083815260200190815260200160002060006101000a81548173ffffffffffffffffffffffffffffffffffffffff021916908373ffffffffffffffffffffffffffffffffffffffff16021790555080837fb97343f1f2afc4959f818046ccae28fd7b05fcd2b7a7dc651cbb52a096cae03560405160405180910390a3508080610f4e90614f51565b915050610e24565b50919050565b610f64611e87565b73ffffffffffffffffffffffffffffffffffffffff16610f826114a0565b73ffffffffffffffffffffffffffffffffffffffff1614610fd8576040517f08c379a0000000000000000000000000000000000000000000000000000000008152600401610fcf90614ae7565b60405180910390fd5b610fe06114a0565b73ffffffffffffffffffffffffffffffffffffffff166108fc479081150290604051600060405180830381858888f19350505050158015611025573d6000803e3d6000fd5b50565b61104383838360405180602001604052806000815250611874565b505050565b600e5481565b60095481565b600061105f82611982565b5111156110a1576040517f08c379a000000000000000000000000000000000000000000000000000000000815260040161109890614967565b60405180910390fd5b80600b54116110e5576040517f08c379a00000000000000000000000000000000000000000000000000000000081526004016110dc90614867565b60405180910390fd5b600060136000838152602001908152602001600020541161113b576040517f08c379a000000000000000000000000000000000000000000000000000000000815260040161113290614987565b60405180910390fd5b3373ffffffffffffffffffffffffffffffffffffffff166014600083815260200190815260200160002060009054906101000a900473ffffffffffffffffffffffffffffffffffffffff1673ffffffffffffffffffffffffffffffffffffffff16146111dc576040517f08c379a00000000000000000000000000000000000000000000000000000000081526004016111d390614887565b60405180910390fd5b60006013600083815260200190815260200160002054905060006111ff82612583565b9050600061120c82610ccd565b90506112208461121b83611450565b6126d9565b837fb662a5131fe3646dc05ebcc07180161553152610daffb7bb78df70229f0fbe2a836040516112509190614845565b60405180910390a250505050565b6000806002600084815260200190815260200160002060009054906101000a900473ffffffffffffffffffffffffffffffffffffffff169050600073ffffffffffffffffffffffffffffffffffffffff168173ffffffffffffffffffffffffffffffffffffffff161415611307576040517f08c379a00000000000000000000000000000000000000000000000000000000081526004016112fe90614a27565b60405180910390fd5b80915050919050565b60008073ffffffffffffffffffffffffffffffffffffffff168273ffffffffffffffffffffffffffffffffffffffff161415611381576040517f08c379a000000000000000000000000000000000000000000000000000000000815260040161137890614a07565b60405180910390fd5b600360008373ffffffffffffffffffffffffffffffffffffffff1673ffffffffffffffffffffffffffffffffffffffff168152602001908152602001600020549050919050565b6113d0611e87565b73ffffffffffffffffffffffffffffffffffffffff166113ee6114a0565b73ffffffffffffffffffffffffffffffffffffffff1614611444576040517f08c379a000000000000000000000000000000000000000000000000000000000815260040161143b90614ae7565b60405180910390fd5b61144e600061274d565b565b606061147a8260405160200161146691906145db565b604051602081830303815290604052612282565b60405160200161148a9190614663565b6040516020818303038152906040529050919050565b6000600860009054906101000a900473ffffffffffffffffffffffffffffffffffffffff16905090565b7f000000000000000000000000000000000000000000000000000000000000000073ffffffffffffffffffffffffffffffffffffffff163373ffffffffffffffffffffffffffffffffffffffff1614611558576040517f08c379a000000000000000000000000000000000000000000000000000000000815260040161154f90614b47565b60405180910390fd5b6115628282612813565b5050565b7f000000000000000000000000000000000000000000000000000000000000000081565b600f818154811061159a57600080fd5b9060005260206000200160009150905080546115b590614eee565b80601f01602080910402602001604051908101604052809291908181526020018280546115e190614eee565b801561162e5780601f106116035761010080835404028352916020019161162e565b820191906000526020600020905b81548152906001019060200180831161161157829003601f168201915b505050505081565b60606001805461164590614eee565b80601f016020809104026020016040519081016040528092919081815260200182805461167190614eee565b80156116be5780601f10611693576101008083540402835291602001916116be565b820191906000526020600020905b8154815290600101906020018083116116a157829003601f168201915b5050505050905090565b6000348280600c546116da9190614d93565b34101561171c576040517f08c379a0000000000000000000000000000000000000000000000000000000008152600401611713906149c7565b60405180910390fd5b600e5481600b5461172d9190614cd5565b111561176e576040517f08c379a000000000000000000000000000000000000000000000000000000000815260040161176590614907565b60405180910390fd5b60018411801561177e5750600a84105b6117bd576040517f08c379a00000000000000000000000000000000000000000000000000000000081526004016117b490614ba7565b60405180910390fd5b60005b848110156117e4576117d0611a7e565b5080806117dc90614f51565b9150506117c0565b505050919050565b600c5481565b6118046117fd611e87565b83836128b9565b5050565b8181101561184b576040517f08c379a000000000000000000000000000000000000000000000000000000000815260040161184290614a67565b60405180910390fd5b5b808210156118705761185d82611054565b818061186890614f51565b92505061184c565b5050565b61188561187f611e87565b83611f48565b6118c4576040517f08c379a00000000000000000000000000000000000000000000000000000000081526004016118bb90614b87565b60405180910390fd5b6118d084848484612a26565b50505050565b601081815481106118e657600080fd5b90600052602060002001600091509050805461190190614eee565b80601f016020809104026020016040519081016040528092919081815260200182805461192d90614eee565b801561197a5780601f1061194f5761010080835404028352916020019161197a565b820191906000526020600020905b81548152906001019060200180831161195d57829003601f168201915b505050505081565b606061198d82612a82565b9050919050565b600b5481565b600d60009054906101000a900473ffffffffffffffffffffffffffffffffffffffff1681565b600a5481565b7f000000000000000000000000000000000000000000000000000000000000000081565b6000600560008473ffffffffffffffffffffffffffffffffffffffff1673ffffffffffffffffffffffffffffffffffffffff16815260200190815260200160002060008373ffffffffffffffffffffffffffffffffffffffff1673ffffffffffffffffffffffffffffffffffffffff16815260200190815260200160002060009054906101000a900460ff16905092915050565b600034600180600c54611a919190614d93565b341015611ad3576040517f08c379a0000000000000000000000000000000000000000000000000000000008152600401611aca906149c7565b60405180910390fd5b600e5481600b54611ae49190614cd5565b1115611b25576040517f08c379a0000000000000000000000000000000000000000000000000000000008152600401611b1c90614907565b60405180910390fd5b611b33600954600a54612421565b9250336011600085815260200190815260200160002060006101000a81548173ffffffffffffffffffffffffffffffffffffffff021916908373ffffffffffffffffffffffffffffffffffffffff1602179055506000600b5490508060126000868152602001908152602001600020819055506001600b54611bb59190614cd5565b600b81905550336014600083815260200190815260200160002060006101000a81548173ffffffffffffffffffffffffffffffffffffffff021916908373ffffffffffffffffffffffffffffffffffffffff16021790555080847fb97343f1f2afc4959f818046ccae28fd7b05fcd2b7a7dc651cbb52a096cae03560405160405180910390a350505090565b611c49611e87565b73ffffffffffffffffffffffffffffffffffffffff16611c676114a0565b73ffffffffffffffffffffffffffffffffffffffff1614611cbd576040517f08c379a0000000000000000000000000000000000000000000000000000000008152600401611cb490614ae7565b60405180910390fd5b600073ffffffffffffffffffffffffffffffffffffffff168173ffffffffffffffffffffffffffffffffffffffff161415611d2d576040517f08c379a0000000000000000000000000000000000000000000000000000000008152600401611d24906148c7565b60405180910390fd5b611d368161274d565b50565b60007f80ac58cd000000000000000000000000000000000000000000000000000000007bffffffffffffffffffffffffffffffffffffffffffffffffffffffff1916827bffffffffffffffffffffffffffffffffffffffffffffffffffffffff19161480611e0457507f5b5e139f000000000000000000000000000000000000000000000000000000007bffffffffffffffffffffffffffffffffffffffffffffffffffffffff1916827bffffffffffffffffffffffffffffffffffffffffffffffffffffffff1916145b80611e145750611e1382612bd4565b5b9050919050565b60008073ffffffffffffffffffffffffffffffffffffffff166002600084815260200190815260200160002060009054906101000a900473ffffffffffffffffffffffffffffffffffffffff1673ffffffffffffffffffffffffffffffffffffffff1614159050919050565b600033905090565b816004600083815260200190815260200160002060006101000a81548173ffffffffffffffffffffffffffffffffffffffff021916908373ffffffffffffffffffffffffffffffffffffffff160217905550808273ffffffffffffffffffffffffffffffffffffffff16611f028361125e565b73ffffffffffffffffffffffffffffffffffffffff167f8c5be1e5ebec7d5bd14f71427d1e84f3dd0314c0f7b2291e5b200ac8c7c3b92560405160405180910390a45050565b6000611f5382611e1b565b611f92576040517f08c379a0000000000000000000000000000000000000000000000000000000008152600401611f89906149a7565b60405180910390fd5b6000611f9d8361125e565b90508073ffffffffffffffffffffffffffffffffffffffff168473ffffffffffffffffffffffffffffffffffffffff16148061200c57508373ffffffffffffffffffffffffffffffffffffffff16611ff484610a7a565b73ffffffffffffffffffffffffffffffffffffffff16145b8061201d575061201c81856119ea565b5b91505092915050565b8273ffffffffffffffffffffffffffffffffffffffff166120468261125e565b73ffffffffffffffffffffffffffffffffffffffff161461209c576040517f08c379a000000000000000000000000000000000000000000000000000000000815260040161209390614b07565b60405180910390fd5b600073ffffffffffffffffffffffffffffffffffffffff168273ffffffffffffffffffffffffffffffffffffffff16141561210c576040517f08c379a000000000000000000000000000000000000000000000000000000000815260040161210390614927565b60405180910390fd5b612117838383612c3e565b612122600082611e8f565b6001600360008573ffffffffffffffffffffffffffffffffffffffff1673ffffffffffffffffffffffffffffffffffffffff16815260200190815260200160002060008282546121729190614ded565b925050819055506001600360008473ffffffffffffffffffffffffffffffffffffffff1673ffffffffffffffffffffffffffffffffffffffff16815260200190815260200160002060008282546121c99190614cd5565b92505081905550816002600083815260200190815260200160002060006101000a81548173ffffffffffffffffffffffffffffffffffffffff021916908373ffffffffffffffffffffffffffffffffffffffff160217905550808273ffffffffffffffffffffffffffffffffffffffff168473ffffffffffffffffffffffffffffffffffffffff167fddf252ad1be2c89b69c2b068fc378daa952ba7f163c4a11628f55a4df523b3ef60405160405180910390a4505050565b60606000825114156122a55760405180602001604052806000815250905061241c565b6000604051806060016040528060408152602001615aa660409139905060006003600285516122d49190614cd5565b6122de9190614d62565b60046122ea9190614d93565b905060006020826122fb9190614cd5565b67ffffffffffffffff81111561233a577f4e487b7100000000000000000000000000000000000000000000000000000000600052604160045260246000fd5b6040519080825280601f01601f19166020018201604052801561236c5781602001600182028036833780820191505090505b509050818152600183018586518101602084015b818310156123db576003830192508251603f8160121c168501518253600182019150603f81600c1c168501518253600182019150603f8160061c168501518253600182019150603f8116850151825360018201915050612380565b6003895106600181146123f5576002811461240557612410565b613d3d60f01b6002830352612410565b603d60f81b60018303525b50505050508093505050505b919050565b60007f000000000000000000000000000000000000000000000000000000000000000073ffffffffffffffffffffffffffffffffffffffff16634000aea07f0000000000000000000000000000000000000000000000000000000000000000848660006040516020016124959291906147d7565b6040516020818303038152906040526040518463ffffffff1660e01b81526004016124c293929190614763565b602060405180830381600087803b1580156124dc57600080fd5b505af11580156124f0573d6000803e3d6000fd5b505050506040513d601f19601f820116820180604052508101906125149190613cef565b506000612537846000306007600089815260200190815260200160002054612c43565b9050600160076000868152602001908152602001600020546125599190614cd5565b600760008681526020019081526020016000208190555061257a8482612c7f565b91505092915050565b6060600060017f0000000000000000000000000000000000000000000000000000000000000000846125b59190614fae565b6125bf9190614cd5565b90506125ea7f0000000000000000000000000000000000000000000000000000000000000000612cb2565b6126137f0000000000000000000000000000000000000000000000000000000000000000612cb2565b60405160200161262492919061461e565b604051602081830303815290604052915060005b818110156126b057600061267685836040516020016126589291906146a7565b6040516020818303038152906040528051906020012060001c612e87565b9050838160405160200161268b929190614514565b60405160208183030381529060405293505080806126a890614f51565b915050612638565b50816040516020016126c291906145b9565b604051602081830303815290604052915050919050565b6126e282611e1b565b612721576040517f08c379a000000000000000000000000000000000000000000000000000000000815260040161271890614a47565b60405180910390fd5b80600660008481526020019081526020016000209080519060200190612748929190613942565b505050565b6000600860009054906101000a900473ffffffffffffffffffffffffffffffffffffffff16905081600860006101000a81548173ffffffffffffffffffffffffffffffffffffffff021916908373ffffffffffffffffffffffffffffffffffffffff1602179055508173ffffffffffffffffffffffffffffffffffffffff168173ffffffffffffffffffffffffffffffffffffffff167f8be0079c531659141344cd1fd0a4f28419497f9722a3daafe3b4186f6b6457e060405160405180910390a35050565b60006011600084815260200190815260200160002060009054906101000a900473ffffffffffffffffffffffffffffffffffffffff16905060006012600085815260200190815260200160002054905061286d82826130af565b82601360008381526020019081526020016000208190555082817fb0cfcf2a647f2022c1938bcab7524c61ba42b34db0270bbd562b9e632c128feb60405160405180910390a350505050565b8173ffffffffffffffffffffffffffffffffffffffff168373ffffffffffffffffffffffffffffffffffffffff161415612928576040517f08c379a000000000000000000000000000000000000000000000000000000000815260040161291f90614947565b60405180910390fd5b80600560008573ffffffffffffffffffffffffffffffffffffffff1673ffffffffffffffffffffffffffffffffffffffff16815260200190815260200160002060008473ffffffffffffffffffffffffffffffffffffffff1673ffffffffffffffffffffffffffffffffffffffff16815260200190815260200160002060006101000a81548160ff0219169083151502179055508173ffffffffffffffffffffffffffffffffffffffff168373ffffffffffffffffffffffffffffffffffffffff167f17307eab39ab6107e8899845ad3d59bd9653f200f220920489ca2b5937696c3183604051612a1991906147a1565b60405180910390a3505050565b612a31848484612026565b612a3d848484846130cd565b612a7c576040517f08c379a0000000000000000000000000000000000000000000000000000000008152600401612a73906148a7565b60405180910390fd5b50505050565b6060612a8d82611e1b565b612acc576040517f08c379a0000000000000000000000000000000000000000000000000000000008152600401612ac390614aa7565b60405180910390fd5b6000600660008481526020019081526020016000208054612aec90614eee565b80601f0160208091040260200160405190810160405280929190818152602001828054612b1890614eee565b8015612b655780601f10612b3a57610100808354040283529160200191612b65565b820191906000526020600020905b815481529060010190602001808311612b4857829003601f168201915b505050505090506000612b76613264565b9050600081511415612b8c578192505050612bcf565b600082511115612bc1578082604051602001612ba9929190614514565b60405160208183030381529060405292505050612bcf565b612bca8461327b565b925050505b919050565b60007f01ffc9a7000000000000000000000000000000000000000000000000000000007bffffffffffffffffffffffffffffffffffffffffffffffffffffffff1916827bffffffffffffffffffffffffffffffffffffffffffffffffffffffff1916149050919050565b505050565b600084848484604051602001612c5c9493929190614800565b6040516020818303038152906040528051906020012060001c9050949350505050565b60008282604051602001612c949291906144d1565b60405160208183030381529060405280519060200120905092915050565b60606000821415612cfa576040518060400160405280600181526020017f30000000000000000000000000000000000000000000000000000000000000008152509050612e82565b600082905060005b60008214612d2c578080612d1590614f51565b915050600a82612d259190614d62565b9150612d02565b60008167ffffffffffffffff811115612d6e577f4e487b7100000000000000000000000000000000000000000000000000000000600052604160045260246000fd5b6040519080825280601f01601f191660200182016040528015612da05781602001600182028036833780820191505090505b50905060008290505b60008614612e7a57600181612dbe9190614ded565b90506000600a8088612dd09190614d62565b612dda9190614d93565b87612de59190614ded565b6030612df19190614d2b565b905060008160f81b905080848481518110612e35577f4e487b7100000000000000000000000000000000000000000000000000000000600052603260045260246000fd5b60200101907effffffffffffffffffffffffffffffffffffffffffffffffffffffffffffff1916908160001a905350600a88612e719190614d62565b97505050612da9565b819450505050505b919050565b6060600060017f000000000000000000000000000000000000000000000000000000000000000084612eb99190614fae565b612ec39190614cd5565b90506040518060400160405280600981526020017f3c7061746820643d270000000000000000000000000000000000000000000000815250915060005b81811015612fa3576000612f6985837f0000000000000000000000000000000000000000000000000000000000000000612f3a9190614cd5565b604051602001612f4b9291906146a7565b6040516020818303038152906040528051906020012060001c613322565b90508381604051602001612f7e929190614514565b6040516020818303038152906040529350508080612f9b90614f51565b915050612f00565b5060006010808054905085612fb89190614fae565b81548110612fef577f4e487b7100000000000000000000000000000000000000000000000000000000600052603260045260246000fd5b90600052602060002001805461300490614eee565b80601f016020809104026020016040519081016040528092919081815260200182805461303090614eee565b801561307d5780601f106130525761010080835404028352916020019161307d565b820191906000526020600020905b81548152906001019060200180831161306057829003601f168201915b505050505090508281604051602001613097929190614538565b60405160208183030381529060405292505050919050565b6130c9828260405180602001604052806000815250613559565b5050565b60006130ee8473ffffffffffffffffffffffffffffffffffffffff166135b4565b15613257578373ffffffffffffffffffffffffffffffffffffffff1663150b7a02613117611e87565b8786866040518563ffffffff1660e01b815260040161313994939291906146ee565b602060405180830381600087803b15801561315357600080fd5b505af192505050801561318457506040513d601f19601f820116820180604052508101906131819190613d7d565b60015b613207573d80600081146131b4576040519150601f19603f3d011682016040523d82523d6000602084013e6131b9565b606091505b506000815114156131ff576040517f08c379a00000000000000000000000000000000000000000000000000000000081526004016131f6906148a7565b60405180910390fd5b805181602001fd5b63150b7a0260e01b7bffffffffffffffffffffffffffffffffffffffffffffffffffffffff1916817bffffffffffffffffffffffffffffffffffffffffffffffffffffffff19161491505061325c565b600190505b949350505050565b606060405180602001604052806000815250905090565b606061328682611e1b565b6132c5576040517f08c379a00000000000000000000000000000000000000000000000000000000081526004016132bc90614b27565b60405180910390fd5b60006132cf613264565b905060008151116132ef576040518060200160405280600081525061331a565b806132f9846135c7565b60405160200161330a929190614514565b6040516020818303038152906040525b915050919050565b6060600f8080549050836133369190614fae565b8154811061336d577f4e487b7100000000000000000000000000000000000000000000000000000000600052603260045260246000fd5b90600052602060002001805461338290614eee565b80601f01602080910402602001604051908101604052809291908181526020018280546133ae90614eee565b80156133fb5780601f106133d0576101008083540402835291602001916133fb565b820191906000526020600020905b8154815290600101906020018083116133de57829003601f168201915b5050505050905060007f00000000000000000000000000000000000000000000000000000000000000008360027f00000000000000000000000000000000000000000000000000000000000000006134539190614d93565b604051602001613464929190614be2565b6040516020818303038152906040528051906020012060001c6134879190614fae565b905060007f000000000000000000000000000000000000000000000000000000000000000084600160027f00000000000000000000000000000000000000000000000000000000000000006134dc9190614d93565b6134e69190614cd5565b6040516020016134f7929190614be2565b6040516020818303038152906040528051906020012060001c61351a9190614fae565b90508261352683612cb2565b61352f83612cb2565b60405160200161354193929190614572565b60405160208183030381529060405292505050919050565b6135638383613774565b61357060008484846130cd565b6135af576040517f08c379a00000000000000000000000000000000000000000000000000000000081526004016135a6906148a7565b60405180910390fd5b505050565b600080823b905060008111915050919050565b6060600082141561360f576040518060400160405280600181526020017f3000000000000000000000000000000000000000000000000000000000000000815250905061376f565b600082905060005b6000821461364157808061362a90614f51565b915050600a8261363a9190614d62565b9150613617565b60008167ffffffffffffffff811115613683577f4e487b7100000000000000000000000000000000000000000000000000000000600052604160045260246000fd5b6040519080825280601f01601f1916602001820160405280156136b55781602001600182028036833780820191505090505b5090505b60008514613768576001826136ce9190614ded565b9150600a856136dd9190614fae565b60306136e99190614cd5565b60f81b818381518110613725577f4e487b7100000000000000000000000000000000000000000000000000000000600052603260045260246000fd5b60200101907effffffffffffffffffffffffffffffffffffffffffffffffffffffffffffff1916908160001a905350600a856137619190614d62565b94506136b9565b8093505050505b919050565b600073ffffffffffffffffffffffffffffffffffffffff168273ffffffffffffffffffffffffffffffffffffffff1614156137e4576040517f08c379a00000000000000000000000000000000000000000000000000000000081526004016137db90614a87565b60405180910390fd5b6137ed81611e1b565b1561382d576040517f08c379a0000000000000000000000000000000000000000000000000000000008152600401613824906148e7565b60405180910390fd5b61383960008383612c3e565b6001600360008473ffffffffffffffffffffffffffffffffffffffff1673ffffffffffffffffffffffffffffffffffffffff16815260200190815260200160002060008282546138899190614cd5565b92505081905550816002600083815260200190815260200160002060006101000a81548173ffffffffffffffffffffffffffffffffffffffff021916908373ffffffffffffffffffffffffffffffffffffffff160217905550808273ffffffffffffffffffffffffffffffffffffffff16600073ffffffffffffffffffffffffffffffffffffffff167fddf252ad1be2c89b69c2b068fc378daa952ba7f163c4a11628f55a4df523b3ef60405160405180910390a45050565b82805461394e90614eee565b90600052602060002090601f01602090048101928261397057600085556139b7565b82601f1061398957805160ff19168380011785556139b7565b828001600101855582156139b7579182015b828111156139b657825182559160200191906001019061399b565b5b5090506139c491906139c8565b5090565b5b808211156139e15760008160009055506001016139c9565b5090565b60006139f86139f384614c30565b614c0b565b905082815260208101848484011115613a1057600080fd5b613a1b848285614eac565b509392505050565b6000613a36613a3184614c61565b614c0b565b905082815260208101848484011115613a4e57600080fd5b613a59848285614eac565b509392505050565b600081359050613a7081615a32565b92915050565b600081359050613a8581615a49565b92915050565b600081519050613a9a81615a49565b92915050565b600081359050613aaf81615a60565b92915050565b600081359050613ac481615a77565b92915050565b600081519050613ad981615a77565b92915050565b600082601f830112613af057600080fd5b8135613b008482602086016139e5565b91505092915050565b600082601f830112613b1a57600080fd5b8135613b2a848260208601613a23565b91505092915050565b600081359050613b4281615a8e565b92915050565b600060208284031215613b5a57600080fd5b6000613b6884828501613a61565b91505092915050565b60008060408385031215613b8457600080fd5b6000613b9285828601613a61565b9250506020613ba385828601613a61565b9150509250929050565b600080600060608486031215613bc257600080fd5b6000613bd086828701613a61565b9350506020613be186828701613a61565b9250506040613bf286828701613b33565b9150509250925092565b60008060008060808587031215613c1257600080fd5b6000613c2087828801613a61565b9450506020613c3187828801613a61565b9350506040613c4287828801613b33565b925050606085013567ffffffffffffffff811115613c5f57600080fd5b613c6b87828801613adf565b91505092959194509250565b60008060408385031215613c8a57600080fd5b6000613c9885828601613a61565b9250506020613ca985828601613a76565b9150509250929050565b60008060408385031215613cc657600080fd5b6000613cd485828601613a61565b9250506020613ce585828601613b33565b9150509250929050565b600060208284031215613d0157600080fd5b6000613d0f84828501613a8b565b91505092915050565b60008060408385031215613d2b57600080fd5b6000613d3985828601613aa0565b9250506020613d4a85828601613b33565b9150509250929050565b600060208284031215613d6657600080fd5b6000613d7484828501613ab5565b91505092915050565b600060208284031215613d8f57600080fd5b6000613d9d84828501613aca565b91505092915050565b600060208284031215613db857600080fd5b600082013567ffffffffffffffff811115613dd257600080fd5b613dde84828501613b09565b91505092915050565b600060208284031215613df957600080fd5b6000613e0784828501613b33565b91505092915050565b60008060408385031215613e2357600080fd5b6000613e3185828601613b33565b9250506020613e4285828601613b33565b9150509250929050565b613e5581614e21565b82525050565b613e6481614e33565b82525050565b613e7381614e3f565b82525050565b613e8a613e8582614e3f565b614f9a565b82525050565b6000613e9b82614c92565b613ea58185614ca8565b9350613eb5818560208601614ebb565b613ebe8161509b565b840191505092915050565b6000613ed482614c9d565b613ede8185614cb9565b9350613eee818560208601614ebb565b613ef78161509b565b840191505092915050565b6000613f0d82614c9d565b613f178185614cca565b9350613f27818560208601614ebb565b80840191505092915050565b6000613f40608183614cca565b9150613f4b826150ac565b608182019050919050565b6000613f63601483614cb9565b9150613f6e8261516d565b602082019050919050565b6000613f86600983614cca565b9150613f9182615196565b600982019050919050565b6000613fa9602583614cb9565b9150613fb4826151bf565b604082019050919050565b6000613fcc603283614cb9565b9150613fd78261520e565b604082019050919050565b6000613fef602683614cb9565b9150613ffa8261525d565b604082019050919050565b6000614012601c83614cb9565b915061401d826152ac565b602082019050919050565b6000614035601883614cb9565b9150614040826152d5565b602082019050919050565b6000614058602483614cb9565b9150614063826152fe565b604082019050919050565b600061407b601983614cb9565b91506140868261534d565b602082019050919050565b600061409e601783614cb9565b91506140a982615376565b602082019050919050565b60006140c1601e83614cb9565b91506140cc8261539f565b602082019050919050565b60006140e4602c83614cb9565b91506140ef826153c8565b604082019050919050565b6000614107601d83614cca565b915061411282615417565b601d82019050919050565b600061412a601283614cb9565b915061413582615440565b602082019050919050565b600061414d600183614cca565b915061415882615469565b600182019050919050565b6000614170600383614cca565b915061417b82615492565b600382019050919050565b6000614193603883614cb9565b915061419e826154bb565b604082019050919050565b60006141b6602a83614cb9565b91506141c18261550a565b604082019050919050565b60006141d9602983614cb9565b91506141e482615559565b604082019050919050565b60006141fc602e83614cb9565b9150614207826155a8565b604082019050919050565b600061421f600283614cca565b915061422a826155f7565b600282019050919050565b6000614242602d83614cb9565b915061424d82615620565b604082019050919050565b6000614265602083614cb9565b91506142708261566f565b602082019050919050565b6000614288603183614cb9565b915061429382615698565b604082019050919050565b60006142ab602c83614cb9565b91506142b6826156e7565b604082019050919050565b60006142ce602083614cb9565b91506142d982615736565b602082019050919050565b60006142f1602983614cb9565b91506142fc8261575f565b604082019050919050565b6000614314603083614cca565b915061431f826157ae565b603082019050919050565b6000614337602f83614cb9565b9150614342826157fd565b604082019050919050565b600061435a601f83614cb9565b91506143658261584c565b602082019050919050565b600061437d602183614cb9565b915061438882615875565b604082019050919050565b60006143a0601d83614cca565b91506143ab826158c4565b601d82019050919050565b60006143c3601d83614cca565b91506143ce826158ed565b601d82019050919050565b60006143e6603183614cb9565b91506143f182615916565b604082019050919050565b6000614409600283614cca565b915061441482615965565b600282019050919050565b600061442c600683614cca565b91506144378261598e565b600682019050919050565b600061444f601a83614cca565b915061445a826159b7565b601a82019050919050565b6000614472600983614cca565b915061447d826159e0565b600982019050919050565b6000614495601e83614cb9565b91506144a082615a09565b602082019050919050565b6144b481614e95565b82525050565b6144cb6144c682614e95565b614fa4565b82525050565b60006144dd8285613e79565b6020820191506144ed82846144ba565b6020820191508190509392505050565b60006145098284613f02565b915081905092915050565b60006145208285613f02565b915061452c8284613f02565b91508190509392505050565b60006145448285613f02565b915061454f826140fa565b915061455b8284613f02565b915061456682614163565b91508190509392505050565b600061457e8286613f02565b915061458982614140565b91506145958285613f02565b91506145a082614140565b91506145ac8284613f02565b9150819050949350505050565b60006145c58284613f02565b91506145d08261441f565b915081905092915050565b60006145e682613f79565b91506145f182614393565b91506145fc82613f33565b91506146088284613f02565b915061461382614212565b915081905092915050565b600061462982614307565b91506146358285613f02565b915061464082614465565b915061464c8284613f02565b9150614657826143fc565b91508190509392505050565b600061466e826143b6565b915061467a8284613f02565b915081905092915050565b600061469082614442565b915061469c8284613f02565b915081905092915050565b60006146b382856144ba565b6020820191506146c382846144ba565b6020820191508190509392505050565b60006020820190506146e86000830184613e4c565b92915050565b60006080820190506147036000830187613e4c565b6147106020830186613e4c565b61471d60408301856144ab565b818103606083015261472f8184613e90565b905095945050505050565b600060408201905061474f6000830185613e4c565b61475c60208301846144ab565b9392505050565b60006060820190506147786000830186613e4c565b61478560208301856144ab565b81810360408301526147978184613e90565b9050949350505050565b60006020820190506147b66000830184613e5b565b92915050565b60006020820190506147d16000830184613e6a565b92915050565b60006040820190506147ec6000830185613e6a565b6147f960208301846144ab565b9392505050565b60006080820190506148156000830187613e6a565b61482260208301866144ab565b61482f6040830185613e4c565b61483c60608301846144ab565b95945050505050565b6000602082019050818103600083015261485f8184613ec9565b905092915050565b6000602082019050818103600083015261488081613f56565b9050919050565b600060208201905081810360008301526148a081613f9c565b9050919050565b600060208201905081810360008301526148c081613fbf565b9050919050565b600060208201905081810360008301526148e081613fe2565b9050919050565b6000602082019050818103600083015261490081614005565b9050919050565b6000602082019050818103600083015261492081614028565b9050919050565b600060208201905081810360008301526149408161404b565b9050919050565b600060208201905081810360008301526149608161406e565b9050919050565b6000602082019050818103600083015261498081614091565b9050919050565b600060208201905081810360008301526149a0816140b4565b9050919050565b600060208201905081810360008301526149c0816140d7565b9050919050565b600060208201905081810360008301526149e08161411d565b9050919050565b60006020820190508181036000830152614a0081614186565b9050919050565b60006020820190508181036000830152614a20816141a9565b9050919050565b60006020820190508181036000830152614a40816141cc565b9050919050565b60006020820190508181036000830152614a60816141ef565b9050919050565b60006020820190508181036000830152614a8081614235565b9050919050565b60006020820190508181036000830152614aa081614258565b9050919050565b60006020820190508181036000830152614ac08161427b565b9050919050565b60006020820190508181036000830152614ae08161429e565b9050919050565b60006020820190508181036000830152614b00816142c1565b9050919050565b60006020820190508181036000830152614b20816142e4565b9050919050565b60006020820190508181036000830152614b408161432a565b9050919050565b60006020820190508181036000830152614b608161434d565b9050919050565b60006020820190508181036000830152614b8081614370565b9050919050565b60006020820190508181036000830152614ba0816143d9565b9050919050565b60006020820190508181036000830152614bc081614488565b9050919050565b6000602082019050614bdc60008301846144ab565b92915050565b6000604082019050614bf760008301856144ab565b614c0460208301846144ab565b9392505050565b6000614c15614c26565b9050614c218282614f20565b919050565b6000604051905090565b600067ffffffffffffffff821115614c4b57614c4a61506c565b5b614c548261509b565b9050602081019050919050565b600067ffffffffffffffff821115614c7c57614c7b61506c565b5b614c858261509b565b9050602081019050919050565b600081519050919050565b600081519050919050565b600082825260208201905092915050565b600082825260208201905092915050565b600081905092915050565b6000614ce082614e95565b9150614ceb83614e95565b9250827fffffffffffffffffffffffffffffffffffffffffffffffffffffffffffffffff03821115614d2057614d1f614fdf565b5b828201905092915050565b6000614d3682614e9f565b9150614d4183614e9f565b92508260ff03821115614d5757614d56614fdf565b5b828201905092915050565b6000614d6d82614e95565b9150614d7883614e95565b925082614d8857614d8761500e565b5b828204905092915050565b6000614d9e82614e95565b9150614da983614e95565b9250817fffffffffffffffffffffffffffffffffffffffffffffffffffffffffffffffff0483118215151615614de257614de1614fdf565b5b828202905092915050565b6000614df882614e95565b9150614e0383614e95565b925082821015614e1657614e15614fdf565b5b828203905092915050565b6000614e2c82614e75565b9050919050565b60008115159050919050565b6000819050919050565b60007fffffffff0000000000000000000000000000000000000000000000000000000082169050919050565b600073ffffffffffffffffffffffffffffffffffffffff82169050919050565b6000819050919050565b600060ff82169050919050565b82818337600083830152505050565b60005b83811015614ed9578082015181840152602081019050614ebe565b83811115614ee8576000848401525b50505050565b60006002820490506001821680614f0657607f821691505b60208210811415614f1a57614f1961503d565b5b50919050565b614f298261509b565b810181811067ffffffffffffffff82111715614f4857614f4761506c565b5b80604052505050565b6000614f5c82614e95565b91507fffffffffffffffffffffffffffffffffffffffffffffffffffffffffffffffff821415614f8f57614f8e614fdf565b5b600182019050919050565b6000819050919050565b6000819050919050565b6000614fb982614e95565b9150614fc483614e95565b925082614fd457614fd361500e565b5b828206905092915050565b7f4e487b7100000000000000000000000000000000000000000000000000000000600052601160045260246000fd5b7f4e487b7100000000000000000000000000000000000000000000000000000000600052601260045260246000fd5b7f4e487b7100000000000000000000000000000000000000000000000000000000600052602260045260246000fd5b7f4e487b7100000000000000000000000000000000000000000000000000000000600052604160045260246000fd5b6000601f19601f8301169050919050565b7f222c20226465736372697074696f6e223a22416e204e4654206261736564206f60008201527f6e20616e205356472074686174207761732067656e6572617465642072616e6460208201527f6f6d6c792077697468207468652068656c70206f6620436861696e4c696e6b2060408201527f56524621222c202261747472696275746573223a22222c2022696d616765223a60608201527f2200000000000000000000000000000000000000000000000000000000000000608082015250565b7f746f6b656e4964206973206e6f742076616c6964000000000000000000000000600082015250565b7f7b226e616d65223a220000000000000000000000000000000000000000000000600082015250565b7f4f6e6c792074686520726563697069656e742063616e2066696e697368206d6960008201527f6e74696e67000000000000000000000000000000000000000000000000000000602082015250565b7f4552433732313a207472616e7366657220746f206e6f6e20455243373231526560008201527f63656976657220696d706c656d656e7465720000000000000000000000000000602082015250565b7f4f776e61626c653a206e6577206f776e657220697320746865207a65726f206160008201527f6464726573730000000000000000000000000000000000000000000000000000602082015250565b7f4552433732313a20746f6b656e20616c7265616479206d696e74656400000000600082015250565b7f43616e6e6f7420657863656564206d617820616d6f756e740000000000000000600082015250565b7f4552433732313a207472616e7366657220746f20746865207a65726f2061646460008201527f7265737300000000000000000000000000000000000000000000000000000000602082015250565b7f4552433732313a20617070726f766520746f2063616c6c657200000000000000600082015250565b7f746f6b656e55524920697320616c726561647920736574000000000000000000600082015250565b7f6e65656420746f207761697420666f7220436861696e4c696e6b205652460000600082015250565b7f4552433732313a206f70657261746f7220717565727920666f72206e6f6e657860008201527f697374656e7420746f6b656e0000000000000000000000000000000000000000602082015250565b7f272066696c6c3d277472616e73706172656e7427207374726f6b653d27000000600082015250565b7f496e73756666696369656e742066756e64730000000000000000000000000000600082015250565b7f2000000000000000000000000000000000000000000000000000000000000000600082015250565b7f272f3e0000000000000000000000000000000000000000000000000000000000600082015250565b7f4552433732313a20617070726f76652063616c6c6572206973206e6f74206f7760008201527f6e6572206e6f7220617070726f76656420666f7220616c6c0000000000000000602082015250565b7f4552433732313a2062616c616e636520717565727920666f7220746865207a6560008201527f726f206164647265737300000000000000000000000000000000000000000000602082015250565b7f4552433732313a206f776e657220717565727920666f72206e6f6e657869737460008201527f656e7420746f6b656e0000000000000000000000000000000000000000000000602082015250565b7f45524337323155524953746f726167653a2055524920736574206f66206e6f6e60008201527f6578697374656e7420746f6b656e000000000000000000000000000000000000602082015250565b7f227d000000000000000000000000000000000000000000000000000000000000600082015250565b7f6c617374546f6b656e4964206d7573742062652067726561746572207468616e60008201527f206669727374546f6b656e496400000000000000000000000000000000000000602082015250565b7f4552433732313a206d696e7420746f20746865207a65726f2061646472657373600082015250565b7f45524337323155524953746f726167653a2055524920717565727920666f722060008201527f6e6f6e6578697374656e7420746f6b656e000000000000000000000000000000602082015250565b7f4552433732313a20617070726f76656420717565727920666f72206e6f6e657860008201527f697374656e7420746f6b656e0000000000000000000000000000000000000000602082015250565b7f4f776e61626c653a2063616c6c6572206973206e6f7420746865206f776e6572600082015250565b7f4552433732313a207472616e73666572206f6620746f6b656e2074686174206960008201527f73206e6f74206f776e0000000000000000000000000000000000000000000000602082015250565b7f3c73766720786d6c6e733d27687474703a2f2f7777772e77332e6f72672f323060008201527f30302f73766727206865696768743d2700000000000000000000000000000000602082015250565b7f4552433732314d657461646174613a2055524920717565727920666f72206e6f60008201527f6e6578697374656e7420746f6b656e0000000000000000000000000000000000602082015250565b7f4f6e6c7920565246436f6f7264696e61746f722063616e2066756c66696c6c00600082015250565b7f4552433732313a20617070726f76616c20746f2063757272656e74206f776e6560008201527f7200000000000000000000000000000000000000000000000000000000000000602082015250565b7f52616e646f6d2047656e657261746564204f6e2d436861696e20535647000000600082015250565b7f646174613a6170706c69636174696f6e2f6a736f6e3b6261736536342c000000600082015250565b7f4552433732313a207472616e736665722063616c6c6572206973206e6f74206f60008201527f776e6572206e6f7220617070726f766564000000000000000000000000000000602082015250565b7f273e000000000000000000000000000000000000000000000000000000000000600082015250565b7f3c2f7376673e0000000000000000000000000000000000000000000000000000600082015250565b7f646174613a696d6167652f7376672b786d6c3b6261736536342c000000000000600082015250565b7f272077696474683d270000000000000000000000000000000000000000000000600082015250565b7f496e76616c6964204d696e74204261746368204d696e7420416d6f756e740000600082015250565b615a3b81614e21565b8114615a4657600080fd5b50565b615a5281614e33565b8114615a5d57600080fd5b50565b615a6981614e3f565b8114615a7457600080fd5b50565b615a8081614e49565b8114615a8b57600080fd5b50565b615a9781614e95565b8114615aa257600080fd5b5056fe4142434445464748494a4b4c4d4e4f505152535455565758595a6162636465666768696a6b6c6d6e6f707172737475767778797a303132333435363738392b2fa264697066735822122083b0582ef0fdbf2e1320aba16827dab61855c5d9ea1188262618402f30da471164736f6c63430008020033",
  "devdoc": {
    "events": {
      "requestedRandomSVG(bytes32,uint256)": {
        "details": "indexed values are treated as log topics instead of raw data.Allows you to search for specific events rather than parsing the entire log."
      }
    },
    "kind": "dev",
    "methods": {
      "approve(address,uint256)": {
        "details": "See {IERC721-approve}."
      },
      "balanceOf(address)": {
        "details": "See {IERC721-balanceOf}."
      },
      "constructor": {
        "details": "Constructor",
        "params": {
          "_LinkToken": "address of the Link token",
          "_VRFCoordinator": "address of the VRF coordinator",
          "_fee": "uint256 ",
          "_keyHash": "bytes32 "
        }
      },
      "create()": {
        "details": "Requests ChainLink VRF number and maps the id Technically this is the NFT"
      },
      "createtBatch(uint256)": {
        "details": "Mint multiple NFTs Can potentially be optimized with ERC721A but this contract is already at its size limit"
      },
      "finishMint(uint256)": {
        "details": "Savs generated SVG info to the blockchain",
        "params": {
          "_tokenId": "Token ID Requires:    - tokenId is a valid token ID   - tokenIdToRandomNumber[tokenId] is a valid random number   - tokenCounter is greater than tokenId"
        }
      },
      "formatTokenURI(string)": {
        "details": "Converts image URI to token URI",
        "params": {
          "imageURI": "image URI string"
        }
      },
      "getApproved(uint256)": {
        "details": "See {IERC721-getApproved}."
      },
      "isApprovedForAll(address,address)": {
        "details": "See {IERC721-isApprovedForAll}."
      },
      "name()": {
        "details": "See {IERC721Metadata-name}."
      },
      "owner()": {
        "details": "Returns the address of the current owner."
      },
      "ownerOf(uint256)": {
        "details": "See {IERC721-ownerOf}."
      },
      "renounceOwnership()": {
        "details": "Leaves the contract without owner. It will not be possible to call `onlyOwner` functions anymore. Can only be called by the current owner. NOTE: Renouncing ownership will leave the contract without an owner, thereby removing any functionality that is only available to the owner."
      },
      "royaltyInfo(uint256,uint256)": {
        "details": "ERC2981 Royalty Token Interface",
        "params": {
          "_salePrice": "uint256 Sale price",
          "_tokenId": "uint256 Token ID"
        }
      },
      "safeTransferFrom(address,address,uint256)": {
        "details": "See {IERC721-safeTransferFrom}."
      },
      "safeTransferFrom(address,address,uint256,bytes)": {
        "details": "See {IERC721-safeTransferFrom}."
      },
      "setApprovalForAll(address,bool)": {
        "details": "See {IERC721-setApprovalForAll}."
      },
      "svgToImageURI(string)": {
        "details": "Converts SVG to image URI with base64 encoding",
        "params": {
          "svg": "SVG string"
        }
      },
      "symbol()": {
        "details": "See {IERC721Metadata-symbol}."
      },
      "tokenURI(uint256)": {
        "details": "See {IERC721Metadata-tokenURI}."
      },
      "transferFrom(address,address,uint256)": {
        "details": "See {IERC721-transferFrom}."
      },
      "transferOwnership(address)": {
        "details": "Transfers ownership of the contract to a new account (`newOwner`). Can only be called by the current owner."
      },
      "withdraw()": {
        "details": "allows the owner to withdraw funds"
      }
    },
    "version": 1
  },
  "userdoc": {
    "kind": "user",
    "methods": {
      "setVRFFee(uint256)": {
        "notice": "Function to handle changing the VRF coordinator fee"
      }
    },
    "version": 1
  },
  "storageLayout": {
    "storage": [
      {
        "astId": 418,
        "contract": "contracts/RandomOnChainSVG.sol:RandomOnChainSVG",
        "label": "_name",
        "offset": 0,
        "slot": "0",
        "type": "t_string_storage"
      },
      {
        "astId": 420,
        "contract": "contracts/RandomOnChainSVG.sol:RandomOnChainSVG",
        "label": "_symbol",
        "offset": 0,
        "slot": "1",
        "type": "t_string_storage"
      },
      {
        "astId": 424,
        "contract": "contracts/RandomOnChainSVG.sol:RandomOnChainSVG",
        "label": "_owners",
        "offset": 0,
        "slot": "2",
        "type": "t_mapping(t_uint256,t_address)"
      },
      {
        "astId": 428,
        "contract": "contracts/RandomOnChainSVG.sol:RandomOnChainSVG",
        "label": "_balances",
        "offset": 0,
        "slot": "3",
        "type": "t_mapping(t_address,t_uint256)"
      },
      {
        "astId": 432,
        "contract": "contracts/RandomOnChainSVG.sol:RandomOnChainSVG",
        "label": "_tokenApprovals",
        "offset": 0,
        "slot": "4",
        "type": "t_mapping(t_uint256,t_address)"
      },
      {
        "astId": 438,
        "contract": "contracts/RandomOnChainSVG.sol:RandomOnChainSVG",
        "label": "_operatorApprovals",
        "offset": 0,
        "slot": "5",
        "type": "t_mapping(t_address,t_mapping(t_address,t_bool))"
      },
      {
        "astId": 1370,
        "contract": "contracts/RandomOnChainSVG.sol:RandomOnChainSVG",
        "label": "_tokenURIs",
        "offset": 0,
        "slot": "6",
        "type": "t_mapping(t_uint256,t_string_storage)"
      },
      {
        "astId": 79,
        "contract": "contracts/RandomOnChainSVG.sol:RandomOnChainSVG",
        "label": "nonces",
        "offset": 0,
        "slot": "7",
        "type": "t_mapping(t_bytes32,t_uint256)"
      },
      {
        "astId": 273,
        "contract": "contracts/RandomOnChainSVG.sol:RandomOnChainSVG",
        "label": "_owner",
        "offset": 0,
        "slot": "8",
        "type": "t_address"
      },
      {
        "astId": 2202,
        "contract": "contracts/RandomOnChainSVG.sol:RandomOnChainSVG",
        "label": "keyHash",
        "offset": 0,
        "slot": "9",
        "type": "t_bytes32"
      },
      {
        "astId": 2204,
        "contract": "contracts/RandomOnChainSVG.sol:RandomOnChainSVG",
        "label": "fee",
        "offset": 0,
        "slot": "10",
        "type": "t_uint256"
      },
      {
        "astId": 2206,
        "contract": "contracts/RandomOnChainSVG.sol:RandomOnChainSVG",
        "label": "tokenCounter",
        "offset": 0,
        "slot": "11",
        "type": "t_uint256"
      },
      {
        "astId": 2209,
        "contract": "contracts/RandomOnChainSVG.sol:RandomOnChainSVG",
        "label": "price",
        "offset": 0,
        "slot": "12",
        "type": "t_uint256"
      },
      {
        "astId": 2211,
        "contract": "contracts/RandomOnChainSVG.sol:RandomOnChainSVG",
        "label": "_recipient",
        "offset": 0,
        "slot": "13",
        "type": "t_address"
      },
      {
        "astId": 2214,
        "contract": "contracts/RandomOnChainSVG.sol:RandomOnChainSVG",
        "label": "maxAmount",
        "offset": 0,
        "slot": "14",
        "type": "t_uint256"
      },
      {
        "astId": 2229,
        "contract": "contracts/RandomOnChainSVG.sol:RandomOnChainSVG",
        "label": "pathCommands",
        "offset": 0,
        "slot": "15",
        "type": "t_array(t_string_storage)dyn_storage"
      },
      {
        "astId": 2241,
        "contract": "contracts/RandomOnChainSVG.sol:RandomOnChainSVG",
        "label": "colors",
        "offset": 0,
        "slot": "16",
        "type": "t_array(t_string_storage)dyn_storage"
      },
      {
        "astId": 2245,
        "contract": "contracts/RandomOnChainSVG.sol:RandomOnChainSVG",
        "label": "requestIdToSender",
        "offset": 0,
        "slot": "17",
        "type": "t_mapping(t_bytes32,t_address)"
      },
      {
        "astId": 2249,
        "contract": "contracts/RandomOnChainSVG.sol:RandomOnChainSVG",
        "label": "requestIdToTokenId",
        "offset": 0,
        "slot": "18",
        "type": "t_mapping(t_bytes32,t_uint256)"
      },
      {
        "astId": 2253,
        "contract": "contracts/RandomOnChainSVG.sol:RandomOnChainSVG",
        "label": "tokenIdToRandomNumber",
        "offset": 0,
        "slot": "19",
        "type": "t_mapping(t_uint256,t_uint256)"
      },
      {
        "astId": 2257,
        "contract": "contracts/RandomOnChainSVG.sol:RandomOnChainSVG",
        "label": "tokenIdToRecipient",
        "offset": 0,
        "slot": "20",
        "type": "t_mapping(t_uint256,t_address)"
      }
    ],
    "types": {
      "t_address": {
        "encoding": "inplace",
        "label": "address",
        "numberOfBytes": "20"
      },
      "t_array(t_string_storage)dyn_storage": {
        "base": "t_string_storage",
        "encoding": "dynamic_array",
        "label": "string[]",
        "numberOfBytes": "32"
      },
      "t_bool": {
        "encoding": "inplace",
        "label": "bool",
        "numberOfBytes": "1"
      },
      "t_bytes32": {
        "encoding": "inplace",
        "label": "bytes32",
        "numberOfBytes": "32"
      },
      "t_mapping(t_address,t_bool)": {
        "encoding": "mapping",
        "key": "t_address",
        "label": "mapping(address => bool)",
        "numberOfBytes": "32",
        "value": "t_bool"
      },
      "t_mapping(t_address,t_mapping(t_address,t_bool))": {
        "encoding": "mapping",
        "key": "t_address",
        "label": "mapping(address => mapping(address => bool))",
        "numberOfBytes": "32",
        "value": "t_mapping(t_address,t_bool)"
      },
      "t_mapping(t_address,t_uint256)": {
        "encoding": "mapping",
        "key": "t_address",
        "label": "mapping(address => uint256)",
        "numberOfBytes": "32",
        "value": "t_uint256"
      },
      "t_mapping(t_bytes32,t_address)": {
        "encoding": "mapping",
        "key": "t_bytes32",
        "label": "mapping(bytes32 => address)",
        "numberOfBytes": "32",
        "value": "t_address"
      },
      "t_mapping(t_bytes32,t_uint256)": {
        "encoding": "mapping",
        "key": "t_bytes32",
        "label": "mapping(bytes32 => uint256)",
        "numberOfBytes": "32",
        "value": "t_uint256"
      },
      "t_mapping(t_uint256,t_address)": {
        "encoding": "mapping",
        "key": "t_uint256",
        "label": "mapping(uint256 => address)",
        "numberOfBytes": "32",
        "value": "t_address"
      },
      "t_mapping(t_uint256,t_string_storage)": {
        "encoding": "mapping",
        "key": "t_uint256",
        "label": "mapping(uint256 => string)",
        "numberOfBytes": "32",
        "value": "t_string_storage"
      },
      "t_mapping(t_uint256,t_uint256)": {
        "encoding": "mapping",
        "key": "t_uint256",
        "label": "mapping(uint256 => uint256)",
        "numberOfBytes": "32",
        "value": "t_uint256"
      },
      "t_string_storage": {
        "encoding": "bytes",
        "label": "string",
        "numberOfBytes": "32"
      },
      "t_uint256": {
        "encoding": "inplace",
        "label": "uint256",
        "numberOfBytes": "32"
      }
    }
  }
}