{
  "address": "0x0e7e4a9AEFFBe988774e55316f4bd7e157812a36",
  "abi": [
    {
      "inputs": [
        {
          "internalType": "address",
          "name": "_VRFCoordinator",
          "type": "address"
        },
        {
          "internalType": "address",
          "name": "_LinkToken",
          "type": "address"
        },
        {
          "internalType": "bytes32",
          "name": "_keyHash",
          "type": "bytes32"
        },
        {
          "internalType": "uint256",
          "name": "_fee",
          "type": "uint256"
        }
      ],
      "stateMutability": "nonpayable",
      "type": "constructor"
    },
    {
      "anonymous": false,
      "inputs": [
        {
          "indexed": true,
          "internalType": "address",
          "name": "owner",
          "type": "address"
        },
        {
          "indexed": true,
          "internalType": "address",
          "name": "approved",
          "type": "address"
        },
        {
          "indexed": true,
          "internalType": "uint256",
          "name": "tokenId",
          "type": "uint256"
        }
      ],
      "name": "Approval",
      "type": "event"
    },
    {
      "anonymous": false,
      "inputs": [
        {
          "indexed": true,
          "internalType": "address",
          "name": "owner",
          "type": "address"
        },
        {
          "indexed": true,
          "internalType": "address",
          "name": "operator",
          "type": "address"
        },
        {
          "indexed": false,
          "internalType": "bool",
          "name": "approved",
          "type": "bool"
        }
      ],
      "name": "ApprovalForAll",
      "type": "event"
    },
    {
      "anonymous": false,
      "inputs": [
        {
          "indexed": true,
          "internalType": "address",
          "name": "previousOwner",
          "type": "address"
        },
        {
          "indexed": true,
          "internalType": "address",
          "name": "newOwner",
          "type": "address"
        }
      ],
      "name": "OwnershipTransferred",
      "type": "event"
    },
    {
      "anonymous": false,
      "inputs": [
        {
          "indexed": true,
          "internalType": "address",
          "name": "from",
          "type": "address"
        },
        {
          "indexed": true,
          "internalType": "address",
          "name": "to",
          "type": "address"
        },
        {
          "indexed": true,
          "internalType": "uint256",
          "name": "tokenId",
          "type": "uint256"
        }
      ],
      "name": "Transfer",
      "type": "event"
    },
    {
      "anonymous": false,
      "inputs": [
        {
          "indexed": true,
          "internalType": "uint256",
          "name": "tokenId",
          "type": "uint256"
        },
        {
          "indexed": false,
          "internalType": "string",
          "name": "tokenURI",
          "type": "string"
        }
      ],
      "name": "createdRandomSVG",
      "type": "event"
    },
    {
      "anonymous": false,
      "inputs": [
        {
          "indexed": true,
          "internalType": "uint256",
          "name": "tokenId",
          "type": "uint256"
        },
        {
          "indexed": true,
          "internalType": "uint256",
          "name": "randomNumber",
          "type": "uint256"
        }
      ],
      "name": "createdUnfinishedSVG",
      "type": "event"
    },
    {
      "anonymous": false,
      "inputs": [
        {
          "indexed": true,
          "internalType": "bytes32",
          "name": "requestId",
          "type": "bytes32"
        },
        {
          "indexed": true,
          "internalType": "uint256",
          "name": "tokenId",
          "type": "uint256"
        }
      ],
      "name": "requestedRandomSVG",
      "type": "event"
    },
    {
      "inputs": [],
      "name": "_recipient",
      "outputs": [
        {
          "internalType": "address",
          "name": "",
          "type": "address"
        }
      ],
      "stateMutability": "view",
      "type": "function"
    },
    {
      "inputs": [
        {
          "internalType": "address",
          "name": "to",
          "type": "address"
        },
        {
          "internalType": "uint256",
          "name": "tokenId",
          "type": "uint256"
        }
      ],
      "name": "approve",
      "outputs": [],
      "stateMutability": "nonpayable",
      "type": "function"
    },
    {
      "inputs": [
        {
          "internalType": "address",
          "name": "owner",
          "type": "address"
        }
      ],
      "name": "balanceOf",
      "outputs": [
        {
          "internalType": "uint256",
          "name": "",
          "type": "uint256"
        }
      ],
      "stateMutability": "view",
      "type": "function"
    },
    {
      "inputs": [
        {
          "internalType": "uint256",
          "name": "",
          "type": "uint256"
        }
      ],
      "name": "colors",
      "outputs": [
        {
          "internalType": "string",
          "name": "",
          "type": "string"
        }
      ],
      "stateMutability": "view",
      "type": "function"
    },
    {
      "inputs": [],
      "name": "create",
      "outputs": [
        {
          "internalType": "bytes32",
          "name": "requestId",
          "type": "bytes32"
        }
      ],
      "stateMutability": "payable",
      "type": "function"
    },
    {
      "inputs": [],
      "name": "fee",
      "outputs": [
        {
          "internalType": "uint256",
          "name": "",
          "type": "uint256"
        }
      ],
      "stateMutability": "view",
      "type": "function"
    },
    {
      "inputs": [
        {
          "internalType": "uint256",
          "name": "_tokenId",
          "type": "uint256"
        }
      ],
      "name": "finishMint",
      "outputs": [],
      "stateMutability": "nonpayable",
      "type": "function"
    },
    {
      "inputs": [
        {
          "internalType": "string",
          "name": "imageURI",
          "type": "string"
        }
      ],
      "name": "formatTokenURI",
      "outputs": [
        {
          "internalType": "string",
          "name": "",
          "type": "string"
        }
      ],
      "stateMutability": "pure",
      "type": "function"
    },
    {
      "inputs": [
        {
          "internalType": "uint256",
          "name": "tokenId",
          "type": "uint256"
        }
      ],
      "name": "getApproved",
      "outputs": [
        {
          "internalType": "address",
          "name": "",
          "type": "address"
        }
      ],
      "stateMutability": "view",
      "type": "function"
    },
    {
      "inputs": [
        {
          "internalType": "address",
          "name": "owner",
          "type": "address"
        },
        {
          "internalType": "address",
          "name": "operator",
          "type": "address"
        }
      ],
      "name": "isApprovedForAll",
      "outputs": [
        {
          "internalType": "bool",
          "name": "",
          "type": "bool"
        }
      ],
      "stateMutability": "view",
      "type": "function"
    },
    {
      "inputs": [],
      "name": "keyHash",
      "outputs": [
        {
          "internalType": "bytes32",
          "name": "",
          "type": "bytes32"
        }
      ],
      "stateMutability": "view",
      "type": "function"
    },
    {
      "inputs": [],
      "name": "maxAmount",
      "outputs": [
        {
          "internalType": "uint256",
          "name": "",
          "type": "uint256"
        }
      ],
      "stateMutability": "view",
      "type": "function"
    },
    {
      "inputs": [],
      "name": "maxPathCommands",
      "outputs": [
        {
          "internalType": "uint256",
          "name": "",
          "type": "uint256"
        }
      ],
      "stateMutability": "view",
      "type": "function"
    },
    {
      "inputs": [],
      "name": "maxPaths",
      "outputs": [
        {
          "internalType": "uint256",
          "name": "",
          "type": "uint256"
        }
      ],
      "stateMutability": "view",
      "type": "function"
    },
    {
      "inputs": [],
      "name": "name",
      "outputs": [
        {
          "internalType": "string",
          "name": "",
          "type": "string"
        }
      ],
      "stateMutability": "view",
      "type": "function"
    },
    {
      "inputs": [],
      "name": "owner",
      "outputs": [
        {
          "internalType": "address",
          "name": "",
          "type": "address"
        }
      ],
      "stateMutability": "view",
      "type": "function"
    },
    {
      "inputs": [],
      "name": "ownerCreate",
      "outputs": [
        {
          "internalType": "bytes32",
          "name": "requestId",
          "type": "bytes32"
        }
      ],
      "stateMutability": "nonpayable",
      "type": "function"
    },
    {
      "inputs": [
        {
          "internalType": "uint256",
          "name": "tokenId",
          "type": "uint256"
        }
      ],
      "name": "ownerOf",
      "outputs": [
        {
          "internalType": "address",
          "name": "",
          "type": "address"
        }
      ],
      "stateMutability": "view",
      "type": "function"
    },
    {
      "inputs": [
        {
          "internalType": "uint256",
          "name": "",
          "type": "uint256"
        }
      ],
      "name": "pathCommands",
      "outputs": [
        {
          "internalType": "string",
          "name": "",
          "type": "string"
        }
      ],
      "stateMutability": "view",
      "type": "function"
    },
    {
      "inputs": [],
      "name": "price",
      "outputs": [
        {
          "internalType": "uint256",
          "name": "",
          "type": "uint256"
        }
      ],
      "stateMutability": "view",
      "type": "function"
    },
    {
      "inputs": [
        {
          "internalType": "bytes32",
          "name": "requestId",
          "type": "bytes32"
        },
        {
          "internalType": "uint256",
          "name": "randomness",
          "type": "uint256"
        }
      ],
      "name": "rawFulfillRandomness",
      "outputs": [],
      "stateMutability": "nonpayable",
      "type": "function"
    },
    {
      "inputs": [],
      "name": "renounceOwnership",
      "outputs": [],
      "stateMutability": "nonpayable",
      "type": "function"
    },
    {
      "inputs": [
        {
          "internalType": "uint256",
          "name": "_tokenId",
          "type": "uint256"
        },
        {
          "internalType": "uint256",
          "name": "_salePrice",
          "type": "uint256"
        }
      ],
      "name": "royaltyInfo",
      "outputs": [
        {
          "internalType": "address",
          "name": "receiver",
          "type": "address"
        },
        {
          "internalType": "uint256",
          "name": "royaltyAmount",
          "type": "uint256"
        }
      ],
      "stateMutability": "view",
      "type": "function"
    },
    {
      "inputs": [
        {
          "internalType": "address",
          "name": "from",
          "type": "address"
        },
        {
          "internalType": "address",
          "name": "to",
          "type": "address"
        },
        {
          "internalType": "uint256",
          "name": "tokenId",
          "type": "uint256"
        }
      ],
      "name": "safeTransferFrom",
      "outputs": [],
      "stateMutability": "nonpayable",
      "type": "function"
    },
    {
      "inputs": [
        {
          "internalType": "address",
          "name": "from",
          "type": "address"
        },
        {
          "internalType": "address",
          "name": "to",
          "type": "address"
        },
        {
          "internalType": "uint256",
          "name": "tokenId",
          "type": "uint256"
        },
        {
          "internalType": "bytes",
          "name": "_data",
          "type": "bytes"
        }
      ],
      "name": "safeTransferFrom",
      "outputs": [],
      "stateMutability": "nonpayable",
      "type": "function"
    },
    {
      "inputs": [
        {
          "internalType": "address",
          "name": "operator",
          "type": "address"
        },
        {
          "internalType": "bool",
          "name": "approved",
          "type": "bool"
        }
      ],
      "name": "setApprovalForAll",
      "outputs": [],
      "stateMutability": "nonpayable",
      "type": "function"
    },
    {
      "inputs": [
        {
          "internalType": "uint256",
          "name": "_fee",
          "type": "uint256"
        }
      ],
      "name": "setVRFFee",
      "outputs": [],
      "stateMutability": "nonpayable",
      "type": "function"
    },
    {
      "inputs": [],
      "name": "size",
      "outputs": [
        {
          "internalType": "uint256",
          "name": "",
          "type": "uint256"
        }
      ],
      "stateMutability": "view",
      "type": "function"
    },
    {
      "inputs": [
        {
          "internalType": "bytes4",
          "name": "interfaceId",
          "type": "bytes4"
        }
      ],
      "name": "supportsInterface",
      "outputs": [
        {
          "internalType": "bool",
          "name": "",
          "type": "bool"
        }
      ],
      "stateMutability": "view",
      "type": "function"
    },
    {
      "inputs": [
        {
          "internalType": "string",
          "name": "svg",
          "type": "string"
        }
      ],
      "name": "svgToImageURI",
      "outputs": [
        {
          "internalType": "string",
          "name": "",
          "type": "string"
        }
      ],
      "stateMutability": "pure",
      "type": "function"
    },
    {
      "inputs": [],
      "name": "symbol",
      "outputs": [
        {
          "internalType": "string",
          "name": "",
          "type": "string"
        }
      ],
      "stateMutability": "view",
      "type": "function"
    },
    {
      "inputs": [],
      "name": "tokenCounter",
      "outputs": [
        {
          "internalType": "uint256",
          "name": "",
          "type": "uint256"
        }
      ],
      "stateMutability": "view",
      "type": "function"
    },
    {
      "inputs": [
        {
          "internalType": "uint256",
          "name": "tokenId",
          "type": "uint256"
        }
      ],
      "name": "tokenURI",
      "outputs": [
        {
          "internalType": "string",
          "name": "",
          "type": "string"
        }
      ],
      "stateMutability": "view",
      "type": "function"
    },
    {
      "inputs": [],
      "name": "totalSupply",
      "outputs": [
        {
          "internalType": "uint256",
          "name": "",
          "type": "uint256"
        }
      ],
      "stateMutability": "view",
      "type": "function"
    },
    {
      "inputs": [
        {
          "internalType": "address",
          "name": "from",
          "type": "address"
        },
        {
          "internalType": "address",
          "name": "to",
          "type": "address"
        },
        {
          "internalType": "uint256",
          "name": "tokenId",
          "type": "uint256"
        }
      ],
      "name": "transferFrom",
      "outputs": [],
      "stateMutability": "nonpayable",
      "type": "function"
    },
    {
      "inputs": [
        {
          "internalType": "address",
          "name": "newOwner",
          "type": "address"
        }
      ],
      "name": "transferOwnership",
      "outputs": [],
      "stateMutability": "nonpayable",
      "type": "function"
    },
    {
      "inputs": [],
      "name": "withdraw",
      "outputs": [],
      "stateMutability": "payable",
      "type": "function"
    }
  ],
  "transactionHash": "0xc62950aa987630ee00ef22bd65db457fa528d3c879a6b957f261613a3f94ccae",
  "args": [
    "0xb3dCcb4Cf7a26f6cf6B120Cf5A73875B7BBc655B",
    "0x01be23585060835e02b77ef475b0cc51aa1e0709",
    "0x2ed0feb3e7fd2022120aa84fab1945545a9f2ffc9076fd6156fa96eaff4c1311",
    "100000000000000000"
  ],
  "numDeployments": 37,
  "solcInputHash": "e4785b96cd74b2a3abe1635693c1f334",
  "bytecode": "0x610120604052662386f26fc10000600c556032600e55601460c090815250600a60e0908152506103e86101009081525060405180604001604052806040518060400160405280600181526020017f4d0000000000000000000000000000000000000000000000000000000000000081525081526020016040518060400160405280600181526020017f4c00000000000000000000000000000000000000000000000000000000000000815250815250600f906002620000c092919062000583565b506040518061010001604052806040518060400160405280600381526020017f726564000000000000000000000000000000000000000000000000000000000081525081526020016040518060400160405280600581526020017f677265656e00000000000000000000000000000000000000000000000000000081525081526020016040518060400160405280600481526020017f626c75650000000000000000000000000000000000000000000000000000000081525081526020016040518060400160405280600581526020017f626c61636b00000000000000000000000000000000000000000000000000000081525081526020016040518060400160405280600681526020017f707572706c65000000000000000000000000000000000000000000000000000081525081526020016040518060400160405280600681526020017f6f72616e6765000000000000000000000000000000000000000000000000000081525081526020016040518060400160405280600581526020017f62726f776e00000000000000000000000000000000000000000000000000000081525081526020016040518060400160405280600781526020017f6d6167656e7461000000000000000000000000000000000000000000000000008152508152506010906008620002b5929190620005ea565b50348015620002c357600080fd5b506040516200611b3803806200611b8339818101604052810190620002e99190620007b4565b83836040518060400160405280601081526020017f52616e646f6d4f6e436861696e535647000000000000000000000000000000008152506040518060400160405280600581526020017f524f53564700000000000000000000000000000000000000000000000000000081525081600090805190602001906200036f92919062000651565b5080600190805190602001906200038892919062000651565b5050508173ffffffffffffffffffffffffffffffffffffffff1660a08173ffffffffffffffffffffffffffffffffffffffff1660601b815250508073ffffffffffffffffffffffffffffffffffffffff1660808173ffffffffffffffffffffffffffffffffffffffff1660601b8152505050506200041b6200040f6200048b60201b60201c565b6200049360201b60201c565b8160098190555080600a819055506000600b81905550620004416200055960201b60201c565b600d60006101000a81548173ffffffffffffffffffffffffffffffffffffffff021916908373ffffffffffffffffffffffffffffffffffffffff160217905550505050506200091b565b600033905090565b6000600860009054906101000a900473ffffffffffffffffffffffffffffffffffffffff16905081600860006101000a81548173ffffffffffffffffffffffffffffffffffffffff021916908373ffffffffffffffffffffffffffffffffffffffff1602179055508173ffffffffffffffffffffffffffffffffffffffff168173ffffffffffffffffffffffffffffffffffffffff167f8be0079c531659141344cd1fd0a4f28419497f9722a3daafe3b4186f6b6457e060405160405180910390a35050565b6000600860009054906101000a900473ffffffffffffffffffffffffffffffffffffffff16905090565b828054828255906000526020600020908101928215620005d7579160200282015b82811115620005d6578251829080519060200190620005c592919062000651565b5091602001919060010190620005a4565b5b509050620005e69190620006e2565b5090565b8280548282559060005260206000209081019282156200063e579160200282015b828111156200063d5782518290805190602001906200062c92919062000651565b50916020019190600101906200060b565b5b5090506200064d9190620006e2565b5090565b8280546200065f9062000868565b90600052602060002090601f016020900481019282620006835760008555620006cf565b82601f106200069e57805160ff1916838001178555620006cf565b82800160010185558215620006cf579182015b82811115620006ce578251825591602001919060010190620006b1565b5b509050620006de91906200070a565b5090565b5b80821115620007065760008181620006fc919062000729565b50600101620006e3565b5090565b5b80821115620007255760008160009055506001016200070b565b5090565b508054620007379062000868565b6000825580601f106200074b57506200076c565b601f0160209004906000526020600020908101906200076b91906200070a565b5b50565b6000815190506200078081620008cd565b92915050565b6000815190506200079781620008e7565b92915050565b600081519050620007ae8162000901565b92915050565b60008060008060808587031215620007cb57600080fd5b6000620007db878288016200076f565b9450506020620007ee878288016200076f565b9350506040620008018782880162000786565b925050606062000814878288016200079d565b91505092959194509250565b60006200082d826200083e565b9050919050565b6000819050919050565b600073ffffffffffffffffffffffffffffffffffffffff82169050919050565b6000819050919050565b600060028204905060018216806200088157607f821691505b602082108114156200089857620008976200089e565b5b50919050565b7f4e487b7100000000000000000000000000000000000000000000000000000000600052602260045260246000fd5b620008d88162000820565b8114620008e457600080fd5b50565b620008f28162000834565b8114620008fe57600080fd5b50565b6200090c816200085e565b81146200091857600080fd5b50565b60805160601c60a05160601c60c05160e0516101005161576f620009ac6000396000818161132e015281816121b6015281816121df01528181612bf4015281816131580152818161317c015281816131df01526132050152600081816115fe0152612b720152600081816108cb015261217b0152600081816112920152612804015260006127c8015261576f6000f3fe60806040526004361061021a5760003560e01c806371aee19311610123578063bd11f69d116100ab578063df9bcd241161006f578063df9bcd24146107ef578063e985e9c51461081a578063efc81a8c14610857578063f2fde38b14610875578063fd1cd6261461089e5761021a565b8063bd11f69d146106f4578063c87b56dd14610731578063d082e3811461076e578063d4cca5f114610799578063ddca3f43146107c45761021a565b8063955968d4116100f2578063955968d41461060f57806395d89b411461064c578063a035b1fe14610677578063a22cb465146106a2578063b88d4fde146106cb5761021a565b806371aee193146105535780638da5cb5b1461059057806394985ddd146105bb578063949d225d146105e45761021a565b806330da44cb116101a657806361728f391161017557806361728f391461046e578063624194c7146104995780636352211e146104c257806370a08231146104ff578063715018a61461053c5761021a565b806330da44cb146103e75780633ccfd60b1461041057806342842e0e1461041a5780635f48f393146104435761021a565b8063095ea7b3116101ed578063095ea7b3146102ef57806318160ddd1461031857806323b872dd146103435780632a55205a1461036c57806330d871c6146103aa5761021a565b806301f920c61461021f57806301ffc9a71461024a57806306fdde0314610287578063081812fc146102b2575b600080fd5b34801561022b57600080fd5b506102346108c9565b6040516102419190614893565b60405180910390f35b34801561025657600080fd5b50610271600480360381019061026c9190613aa6565b6108ed565b60405161027e91906144ad565b60405180910390f35b34801561029357600080fd5b5061029c610967565b6040516102a99190614551565b60405180910390f35b3480156102be57600080fd5b506102d960048036038101906102d49190613b39565b6109f9565b6040516102e691906143df565b60405180910390f35b3480156102fb57600080fd5b5061031660048036038101906103119190613a05565b610a7e565b005b34801561032457600080fd5b5061032d610b96565b60405161033a9190614893565b60405180910390f35b34801561034f57600080fd5b5061036a600480360381019061036591906138ff565b610ba0565b005b34801561037857600080fd5b50610393600480360381019061038e9190613b62565b610c00565b6040516103a1929190614446565b60405180910390f35b3480156103b657600080fd5b506103d160048036038101906103cc9190613af8565b610c4c565b6040516103de9190614551565b60405180910390f35b3480156103f357600080fd5b5061040e60048036038101906104099190613b39565b610c9c565b005b610418610d22565b005b34801561042657600080fd5b50610441600480360381019061043c91906138ff565b610dee565b005b34801561044f57600080fd5b50610458610e0e565b6040516104659190614893565b60405180910390f35b34801561047a57600080fd5b50610483610e14565b60405161049091906144c8565b60405180910390f35b3480156104a557600080fd5b506104c060048036038101906104bb9190613b39565b610e1a565b005b3480156104ce57600080fd5b506104e960048036038101906104e49190613b39565b611024565b6040516104f691906143df565b60405180910390f35b34801561050b57600080fd5b506105266004803603810190610521919061389a565b6110d6565b6040516105339190614893565b60405180910390f35b34801561054857600080fd5b5061055161118e565b005b34801561055f57600080fd5b5061057a60048036038101906105759190613af8565b611216565b6040516105879190614551565b60405180910390f35b34801561059c57600080fd5b506105a5611266565b6040516105b291906143df565b60405180910390f35b3480156105c757600080fd5b506105e260048036038101906105dd9190613a6a565b611290565b005b3480156105f057600080fd5b506105f961132c565b6040516106069190614893565b60405180910390f35b34801561061b57600080fd5b5061063660048036038101906106319190613b39565b611350565b6040516106439190614551565b60405180910390f35b34801561065857600080fd5b506106616113fc565b60405161066e9190614551565b60405180910390f35b34801561068357600080fd5b5061068c61148e565b6040516106999190614893565b60405180910390f35b3480156106ae57600080fd5b506106c960048036038101906106c491906139c9565b611494565b005b3480156106d757600080fd5b506106f260048036038101906106ed919061394e565b6114aa565b005b34801561070057600080fd5b5061071b60048036038101906107169190613b39565b61150c565b6040516107289190614551565b60405180910390f35b34801561073d57600080fd5b5061075860048036038101906107539190613b39565b6115b8565b6040516107659190614551565b60405180910390f35b34801561077a57600080fd5b506107836115ca565b6040516107909190614893565b60405180910390f35b3480156107a557600080fd5b506107ae6115d0565b6040516107bb91906143df565b60405180910390f35b3480156107d057600080fd5b506107d96115f6565b6040516107e69190614893565b60405180910390f35b3480156107fb57600080fd5b506108046115fc565b6040516108119190614893565b60405180910390f35b34801561082657600080fd5b50610841600480360381019061083c91906138c3565b611620565b60405161084e91906144ad565b60405180910390f35b61085f6116b4565b60405161086c91906144c8565b60405180910390f35b34801561088157600080fd5b5061089c6004803603810190610897919061389a565b611877565b005b3480156108aa57600080fd5b506108b361196f565b6040516108c091906144c8565b60405180910390f35b7f000000000000000000000000000000000000000000000000000000000000000081565b60007f2a55205a000000000000000000000000000000000000000000000000000000007bffffffffffffffffffffffffffffffffffffffffffffffffffffffff1916827bffffffffffffffffffffffffffffffffffffffffffffffffffffffff19161480610960575061095f82611a8b565b5b9050919050565b60606000805461097690614bba565b80601f01602080910402602001604051908101604052809291908181526020018280546109a290614bba565b80156109ef5780601f106109c4576101008083540402835291602001916109ef565b820191906000526020600020905b8154815290600101906020018083116109d257829003601f168201915b5050505050905090565b6000610a0482611b6d565b610a43576040517f08c379a0000000000000000000000000000000000000000000000000000000008152600401610a3a906147b3565b60405180910390fd5b6004600083815260200190815260200160002060009054906101000a900473ffffffffffffffffffffffffffffffffffffffff169050919050565b6000610a8982611024565b90508073ffffffffffffffffffffffffffffffffffffffff168373ffffffffffffffffffffffffffffffffffffffff161415610afa576040517f08c379a0000000000000000000000000000000000000000000000000000000008152600401610af190614853565b60405180910390fd5b8073ffffffffffffffffffffffffffffffffffffffff16610b19611bd9565b73ffffffffffffffffffffffffffffffffffffffff161480610b485750610b4781610b42611bd9565b611620565b5b610b87576040517f08c379a0000000000000000000000000000000000000000000000000000000008152600401610b7e906146f3565b60405180910390fd5b610b918383611be1565b505050565b6000600b54905090565b610bb1610bab611bd9565b82611c9a565b610bf0576040517f08c379a0000000000000000000000000000000000000000000000000000000008152600401610be790614873565b60405180910390fd5b610bfb838383611d78565b505050565b600080600d60009054906101000a900473ffffffffffffffffffffffffffffffffffffffff166127106103e885610c379190614a5f565b610c419190614a2e565b915091509250929050565b6060610c7682604051602001610c629190614209565b604051602081830303815290604052611fd4565b604051602001610c869190614391565b6040516020818303038152906040529050919050565b610ca4611bd9565b73ffffffffffffffffffffffffffffffffffffffff16610cc2611266565b73ffffffffffffffffffffffffffffffffffffffff1614610d18576040517f08c379a0000000000000000000000000000000000000000000000000000000008152600401610d0f906147d3565b60405180910390fd5b80600a8190555050565b610d2a611bd9565b73ffffffffffffffffffffffffffffffffffffffff16610d48611266565b73ffffffffffffffffffffffffffffffffffffffff1614610d9e576040517f08c379a0000000000000000000000000000000000000000000000000000000008152600401610d95906147d3565b60405180910390fd5b610da6611266565b73ffffffffffffffffffffffffffffffffffffffff166108fc479081150290604051600060405180830381858888f19350505050158015610deb573d6000803e3d6000fd5b50565b610e09838383604051806020016040528060008152506114aa565b505050565b600e5481565b60095481565b6000610e25826115b8565b511115610e67576040517f08c379a0000000000000000000000000000000000000000000000000000000008152600401610e5e90614673565b60405180910390fd5b80600b5411610eab576040517f08c379a0000000000000000000000000000000000000000000000000000000008152600401610ea290614573565b60405180910390fd5b6000601360008381526020019081526020016000205411610f01576040517f08c379a0000000000000000000000000000000000000000000000000000000008152600401610ef890614693565b60405180910390fd5b3373ffffffffffffffffffffffffffffffffffffffff166014600083815260200190815260200160002060009054906101000a900473ffffffffffffffffffffffffffffffffffffffff1673ffffffffffffffffffffffffffffffffffffffff1614610fa2576040517f08c379a0000000000000000000000000000000000000000000000000000000008152600401610f9990614593565b60405180910390fd5b6000601360008381526020019081526020016000205490506000610fc582612173565b90506000610fd282610c4c565b9050610fe684610fe183611216565b6122c9565b837fb662a5131fe3646dc05ebcc07180161553152610daffb7bb78df70229f0fbe2a836040516110169190614551565b60405180910390a250505050565b6000806002600084815260200190815260200160002060009054906101000a900473ffffffffffffffffffffffffffffffffffffffff169050600073ffffffffffffffffffffffffffffffffffffffff168173ffffffffffffffffffffffffffffffffffffffff1614156110cd576040517f08c379a00000000000000000000000000000000000000000000000000000000081526004016110c490614733565b60405180910390fd5b80915050919050565b60008073ffffffffffffffffffffffffffffffffffffffff168273ffffffffffffffffffffffffffffffffffffffff161415611147576040517f08c379a000000000000000000000000000000000000000000000000000000000815260040161113e90614713565b60405180910390fd5b600360008373ffffffffffffffffffffffffffffffffffffffff1673ffffffffffffffffffffffffffffffffffffffff168152602001908152602001600020549050919050565b611196611bd9565b73ffffffffffffffffffffffffffffffffffffffff166111b4611266565b73ffffffffffffffffffffffffffffffffffffffff161461120a576040517f08c379a0000000000000000000000000000000000000000000000000000000008152600401611201906147d3565b60405180910390fd5b611214600061233d565b565b60606112408260405160200161122c91906142e7565b604051602081830303815290604052611fd4565b604051602001611250919061436f565b6040516020818303038152906040529050919050565b6000600860009054906101000a900473ffffffffffffffffffffffffffffffffffffffff16905090565b7f000000000000000000000000000000000000000000000000000000000000000073ffffffffffffffffffffffffffffffffffffffff163373ffffffffffffffffffffffffffffffffffffffff161461131e576040517f08c379a000000000000000000000000000000000000000000000000000000000815260040161131590614833565b60405180910390fd5b6113288282612403565b5050565b7f000000000000000000000000000000000000000000000000000000000000000081565b600f818154811061136057600080fd5b90600052602060002001600091509050805461137b90614bba565b80601f01602080910402602001604051908101604052809291908181526020018280546113a790614bba565b80156113f45780601f106113c9576101008083540402835291602001916113f4565b820191906000526020600020905b8154815290600101906020018083116113d757829003601f168201915b505050505081565b60606001805461140b90614bba565b80601f016020809104026020016040519081016040528092919081815260200182805461143790614bba565b80156114845780601f1061145957610100808354040283529160200191611484565b820191906000526020600020905b81548152906001019060200180831161146757829003601f168201915b5050505050905090565b600c5481565b6114a661149f611bd9565b83836124a9565b5050565b6114bb6114b5611bd9565b83611c9a565b6114fa576040517f08c379a00000000000000000000000000000000000000000000000000000000081526004016114f190614873565b60405180910390fd5b61150684848484612616565b50505050565b6010818154811061151c57600080fd5b90600052602060002001600091509050805461153790614bba565b80601f016020809104026020016040519081016040528092919081815260200182805461156390614bba565b80156115b05780601f10611585576101008083540402835291602001916115b0565b820191906000526020600020905b81548152906001019060200180831161159357829003601f168201915b505050505081565b60606115c382612672565b9050919050565b600b5481565b600d60009054906101000a900473ffffffffffffffffffffffffffffffffffffffff1681565b600a5481565b7f000000000000000000000000000000000000000000000000000000000000000081565b6000600560008473ffffffffffffffffffffffffffffffffffffffff1673ffffffffffffffffffffffffffffffffffffffff16815260200190815260200160002060008373ffffffffffffffffffffffffffffffffffffffff1673ffffffffffffffffffffffffffffffffffffffff16815260200190815260200160002060009054906101000a900460ff16905092915050565b600034600180600c546116c79190614a5f565b341015611709576040517f08c379a0000000000000000000000000000000000000000000000000000000008152600401611700906146d3565b60405180910390fd5b600e5481600b5461171a91906149a1565b111561175b576040517f08c379a000000000000000000000000000000000000000000000000000000000815260040161175290614613565b60405180910390fd5b611769600954600a546127c4565b9250336011600085815260200190815260200160002060006101000a81548173ffffffffffffffffffffffffffffffffffffffff021916908373ffffffffffffffffffffffffffffffffffffffff1602179055506000600b5490508060126000868152602001908152602001600020819055506001600b546117eb91906149a1565b600b81905550336014600083815260200190815260200160002060006101000a81548173ffffffffffffffffffffffffffffffffffffffff021916908373ffffffffffffffffffffffffffffffffffffffff16021790555080847fb97343f1f2afc4959f818046ccae28fd7b05fcd2b7a7dc651cbb52a096cae03560405160405180910390a350505090565b61187f611bd9565b73ffffffffffffffffffffffffffffffffffffffff1661189d611266565b73ffffffffffffffffffffffffffffffffffffffff16146118f3576040517f08c379a00000000000000000000000000000000000000000000000000000000081526004016118ea906147d3565b60405180910390fd5b600073ffffffffffffffffffffffffffffffffffffffff168173ffffffffffffffffffffffffffffffffffffffff161415611963576040517f08c379a000000000000000000000000000000000000000000000000000000000815260040161195a906145d3565b60405180910390fd5b61196c8161233d565b50565b600061197f600954600a546127c4565b9050336011600083815260200190815260200160002060006101000a81548173ffffffffffffffffffffffffffffffffffffffff021916908373ffffffffffffffffffffffffffffffffffffffff1602179055506000600b5490508060126000848152602001908152602001600020819055506001600b54611a0191906149a1565b600b81905550336014600083815260200190815260200160002060006101000a81548173ffffffffffffffffffffffffffffffffffffffff021916908373ffffffffffffffffffffffffffffffffffffffff16021790555080827fb97343f1f2afc4959f818046ccae28fd7b05fcd2b7a7dc651cbb52a096cae03560405160405180910390a35090565b60007f80ac58cd000000000000000000000000000000000000000000000000000000007bffffffffffffffffffffffffffffffffffffffffffffffffffffffff1916827bffffffffffffffffffffffffffffffffffffffffffffffffffffffff19161480611b5657507f5b5e139f000000000000000000000000000000000000000000000000000000007bffffffffffffffffffffffffffffffffffffffffffffffffffffffff1916827bffffffffffffffffffffffffffffffffffffffffffffffffffffffff1916145b80611b665750611b6582612926565b5b9050919050565b60008073ffffffffffffffffffffffffffffffffffffffff166002600084815260200190815260200160002060009054906101000a900473ffffffffffffffffffffffffffffffffffffffff1673ffffffffffffffffffffffffffffffffffffffff1614159050919050565b600033905090565b816004600083815260200190815260200160002060006101000a81548173ffffffffffffffffffffffffffffffffffffffff021916908373ffffffffffffffffffffffffffffffffffffffff160217905550808273ffffffffffffffffffffffffffffffffffffffff16611c5483611024565b73ffffffffffffffffffffffffffffffffffffffff167f8c5be1e5ebec7d5bd14f71427d1e84f3dd0314c0f7b2291e5b200ac8c7c3b92560405160405180910390a45050565b6000611ca582611b6d565b611ce4576040517f08c379a0000000000000000000000000000000000000000000000000000000008152600401611cdb906146b3565b60405180910390fd5b6000611cef83611024565b90508073ffffffffffffffffffffffffffffffffffffffff168473ffffffffffffffffffffffffffffffffffffffff161480611d5e57508373ffffffffffffffffffffffffffffffffffffffff16611d46846109f9565b73ffffffffffffffffffffffffffffffffffffffff16145b80611d6f5750611d6e8185611620565b5b91505092915050565b8273ffffffffffffffffffffffffffffffffffffffff16611d9882611024565b73ffffffffffffffffffffffffffffffffffffffff1614611dee576040517f08c379a0000000000000000000000000000000000000000000000000000000008152600401611de5906147f3565b60405180910390fd5b600073ffffffffffffffffffffffffffffffffffffffff168273ffffffffffffffffffffffffffffffffffffffff161415611e5e576040517f08c379a0000000000000000000000000000000000000000000000000000000008152600401611e5590614633565b60405180910390fd5b611e69838383612990565b611e74600082611be1565b6001600360008573ffffffffffffffffffffffffffffffffffffffff1673ffffffffffffffffffffffffffffffffffffffff1681526020019081526020016000206000828254611ec49190614ab9565b925050819055506001600360008473ffffffffffffffffffffffffffffffffffffffff1673ffffffffffffffffffffffffffffffffffffffff1681526020019081526020016000206000828254611f1b91906149a1565b92505081905550816002600083815260200190815260200160002060006101000a81548173ffffffffffffffffffffffffffffffffffffffff021916908373ffffffffffffffffffffffffffffffffffffffff160217905550808273ffffffffffffffffffffffffffffffffffffffff168473ffffffffffffffffffffffffffffffffffffffff167fddf252ad1be2c89b69c2b068fc378daa952ba7f163c4a11628f55a4df523b3ef60405160405180910390a4505050565b6060600082511415611ff75760405180602001604052806000815250905061216e565b60006040518060600160405280604081526020016156fa604091399050600060036002855161202691906149a1565b6120309190614a2e565b600461203c9190614a5f565b9050600060208261204d91906149a1565b67ffffffffffffffff81111561208c577f4e487b7100000000000000000000000000000000000000000000000000000000600052604160045260246000fd5b6040519080825280601f01601f1916602001820160405280156120be5781602001600182028036833780820191505090505b509050818152600183018586518101602084015b8183101561212d576003830192508251603f8160121c168501518253600182019150603f81600c1c168501518253600182019150603f8160061c168501518253600182019150603f81168501518253600182019150506120d2565b600389510660018114612147576002811461215757612162565b613d3d60f01b6002830352612162565b603d60f81b60018303525b50505050508093505050505b919050565b6060600060017f0000000000000000000000000000000000000000000000000000000000000000846121a59190614c7a565b6121af91906149a1565b90506121da7f0000000000000000000000000000000000000000000000000000000000000000612995565b6122037f0000000000000000000000000000000000000000000000000000000000000000612995565b60405160200161221492919061432a565b604051602081830303815290604052915060005b818110156122a057600061226685836040516020016122489291906143b3565b6040516020818303038152906040528051906020012060001c612b6a565b9050838160405160200161227b929190614220565b604051602081830303815290604052935050808061229890614c1d565b915050612228565b50816040516020016122b291906142c5565b604051602081830303815290604052915050919050565b6122d282611b6d565b612311576040517f08c379a000000000000000000000000000000000000000000000000000000000815260040161230890614753565b60405180910390fd5b80600660008481526020019081526020016000209080519060200190612338929190613694565b505050565b6000600860009054906101000a900473ffffffffffffffffffffffffffffffffffffffff16905081600860006101000a81548173ffffffffffffffffffffffffffffffffffffffff021916908373ffffffffffffffffffffffffffffffffffffffff1602179055508173ffffffffffffffffffffffffffffffffffffffff168173ffffffffffffffffffffffffffffffffffffffff167f8be0079c531659141344cd1fd0a4f28419497f9722a3daafe3b4186f6b6457e060405160405180910390a35050565b60006011600084815260200190815260200160002060009054906101000a900473ffffffffffffffffffffffffffffffffffffffff16905060006012600085815260200190815260200160002054905061245d8282612d92565b82601360008381526020019081526020016000208190555082817fb0cfcf2a647f2022c1938bcab7524c61ba42b34db0270bbd562b9e632c128feb60405160405180910390a350505050565b8173ffffffffffffffffffffffffffffffffffffffff168373ffffffffffffffffffffffffffffffffffffffff161415612518576040517f08c379a000000000000000000000000000000000000000000000000000000000815260040161250f90614653565b60405180910390fd5b80600560008573ffffffffffffffffffffffffffffffffffffffff1673ffffffffffffffffffffffffffffffffffffffff16815260200190815260200160002060008473ffffffffffffffffffffffffffffffffffffffff1673ffffffffffffffffffffffffffffffffffffffff16815260200190815260200160002060006101000a81548160ff0219169083151502179055508173ffffffffffffffffffffffffffffffffffffffff168373ffffffffffffffffffffffffffffffffffffffff167f17307eab39ab6107e8899845ad3d59bd9653f200f220920489ca2b5937696c318360405161260991906144ad565b60405180910390a3505050565b612621848484611d78565b61262d84848484612db0565b61266c576040517f08c379a0000000000000000000000000000000000000000000000000000000008152600401612663906145b3565b60405180910390fd5b50505050565b606061267d82611b6d565b6126bc576040517f08c379a00000000000000000000000000000000000000000000000000000000081526004016126b390614793565b60405180910390fd5b60006006600084815260200190815260200160002080546126dc90614bba565b80601f016020809104026020016040519081016040528092919081815260200182805461270890614bba565b80156127555780601f1061272a57610100808354040283529160200191612755565b820191906000526020600020905b81548152906001019060200180831161273857829003601f168201915b505050505090506000612766612f47565b905060008151141561277c5781925050506127bf565b6000825111156127b1578082604051602001612799929190614220565b604051602081830303815290604052925050506127bf565b6127ba84612f5e565b925050505b919050565b60007f000000000000000000000000000000000000000000000000000000000000000073ffffffffffffffffffffffffffffffffffffffff16634000aea07f0000000000000000000000000000000000000000000000000000000000000000848660006040516020016128389291906144e3565b6040516020818303038152906040526040518463ffffffff1660e01b81526004016128659392919061446f565b602060405180830381600087803b15801561287f57600080fd5b505af1158015612893573d6000803e3d6000fd5b505050506040513d601f19601f820116820180604052508101906128b79190613a41565b5060006128da846000306007600089815260200190815260200160002054613005565b9050600160076000868152602001908152602001600020546128fc91906149a1565b600760008681526020019081526020016000208190555061291d8482613041565b91505092915050565b60007f01ffc9a7000000000000000000000000000000000000000000000000000000007bffffffffffffffffffffffffffffffffffffffffffffffffffffffff1916827bffffffffffffffffffffffffffffffffffffffffffffffffffffffff1916149050919050565b505050565b606060008214156129dd576040518060400160405280600181526020017f30000000000000000000000000000000000000000000000000000000000000008152509050612b65565b600082905060005b60008214612a0f5780806129f890614c1d565b915050600a82612a089190614a2e565b91506129e5565b60008167ffffffffffffffff811115612a51577f4e487b7100000000000000000000000000000000000000000000000000000000600052604160045260246000fd5b6040519080825280601f01601f191660200182016040528015612a835781602001600182028036833780820191505090505b50905060008290505b60008614612b5d57600181612aa19190614ab9565b90506000600a8088612ab39190614a2e565b612abd9190614a5f565b87612ac89190614ab9565b6030612ad491906149f7565b905060008160f81b905080848481518110612b18577f4e487b7100000000000000000000000000000000000000000000000000000000600052603260045260246000fd5b60200101907effffffffffffffffffffffffffffffffffffffffffffffffffffffffffffff1916908160001a905350600a88612b549190614a2e565b97505050612a8c565b819450505050505b919050565b6060600060017f000000000000000000000000000000000000000000000000000000000000000084612b9c9190614c7a565b612ba691906149a1565b90506040518060400160405280600981526020017f3c7061746820643d270000000000000000000000000000000000000000000000815250915060005b81811015612c86576000612c4c85837f0000000000000000000000000000000000000000000000000000000000000000612c1d91906149a1565b604051602001612c2e9291906143b3565b6040516020818303038152906040528051906020012060001c613074565b90508381604051602001612c61929190614220565b6040516020818303038152906040529350508080612c7e90614c1d565b915050612be3565b5060006010808054905085612c9b9190614c7a565b81548110612cd2577f4e487b7100000000000000000000000000000000000000000000000000000000600052603260045260246000fd5b906000526020600020018054612ce790614bba565b80601f0160208091040260200160405190810160405280929190818152602001828054612d1390614bba565b8015612d605780601f10612d3557610100808354040283529160200191612d60565b820191906000526020600020905b815481529060010190602001808311612d4357829003601f168201915b505050505090508281604051602001612d7a929190614244565b60405160208183030381529060405292505050919050565b612dac8282604051806020016040528060008152506132ab565b5050565b6000612dd18473ffffffffffffffffffffffffffffffffffffffff16613306565b15612f3a578373ffffffffffffffffffffffffffffffffffffffff1663150b7a02612dfa611bd9565b8786866040518563ffffffff1660e01b8152600401612e1c94939291906143fa565b602060405180830381600087803b158015612e3657600080fd5b505af1925050508015612e6757506040513d601f19601f82011682018060405250810190612e649190613acf565b60015b612eea573d8060008114612e97576040519150601f19603f3d011682016040523d82523d6000602084013e612e9c565b606091505b50600081511415612ee2576040517f08c379a0000000000000000000000000000000000000000000000000000000008152600401612ed9906145b3565b60405180910390fd5b805181602001fd5b63150b7a0260e01b7bffffffffffffffffffffffffffffffffffffffffffffffffffffffff1916817bffffffffffffffffffffffffffffffffffffffffffffffffffffffff191614915050612f3f565b600190505b949350505050565b606060405180602001604052806000815250905090565b6060612f6982611b6d565b612fa8576040517f08c379a0000000000000000000000000000000000000000000000000000000008152600401612f9f90614813565b60405180910390fd5b6000612fb2612f47565b90506000815111612fd25760405180602001604052806000815250612ffd565b80612fdc84613319565b604051602001612fed929190614220565b6040516020818303038152906040525b915050919050565b60008484848460405160200161301e949392919061450c565b6040516020818303038152906040528051906020012060001c9050949350505050565b600082826040516020016130569291906141dd565b60405160208183030381529060405280519060200120905092915050565b6060600f8080549050836130889190614c7a565b815481106130bf577f4e487b7100000000000000000000000000000000000000000000000000000000600052603260045260246000fd5b9060005260206000200180546130d490614bba565b80601f016020809104026020016040519081016040528092919081815260200182805461310090614bba565b801561314d5780601f106131225761010080835404028352916020019161314d565b820191906000526020600020905b81548152906001019060200180831161313057829003601f168201915b5050505050905060007f00000000000000000000000000000000000000000000000000000000000000008360027f00000000000000000000000000000000000000000000000000000000000000006131a59190614a5f565b6040516020016131b69291906148ae565b6040516020818303038152906040528051906020012060001c6131d99190614c7a565b905060007f000000000000000000000000000000000000000000000000000000000000000084600160027f000000000000000000000000000000000000000000000000000000000000000061322e9190614a5f565b61323891906149a1565b6040516020016132499291906148ae565b6040516020818303038152906040528051906020012060001c61326c9190614c7a565b90508261327883612995565b61328183612995565b6040516020016132939392919061427e565b60405160208183030381529060405292505050919050565b6132b583836134c6565b6132c26000848484612db0565b613301576040517f08c379a00000000000000000000000000000000000000000000000000000000081526004016132f8906145b3565b60405180910390fd5b505050565b600080823b905060008111915050919050565b60606000821415613361576040518060400160405280600181526020017f300000000000000000000000000000000000000000000000000000000000000081525090506134c1565b600082905060005b6000821461339357808061337c90614c1d565b915050600a8261338c9190614a2e565b9150613369565b60008167ffffffffffffffff8111156133d5577f4e487b7100000000000000000000000000000000000000000000000000000000600052604160045260246000fd5b6040519080825280601f01601f1916602001820160405280156134075781602001600182028036833780820191505090505b5090505b600085146134ba576001826134209190614ab9565b9150600a8561342f9190614c7a565b603061343b91906149a1565b60f81b818381518110613477577f4e487b7100000000000000000000000000000000000000000000000000000000600052603260045260246000fd5b60200101907effffffffffffffffffffffffffffffffffffffffffffffffffffffffffffff1916908160001a905350600a856134b39190614a2e565b945061340b565b8093505050505b919050565b600073ffffffffffffffffffffffffffffffffffffffff168273ffffffffffffffffffffffffffffffffffffffff161415613536576040517f08c379a000000000000000000000000000000000000000000000000000000000815260040161352d90614773565b60405180910390fd5b61353f81611b6d565b1561357f576040517f08c379a0000000000000000000000000000000000000000000000000000000008152600401613576906145f3565b60405180910390fd5b61358b60008383612990565b6001600360008473ffffffffffffffffffffffffffffffffffffffff1673ffffffffffffffffffffffffffffffffffffffff16815260200190815260200160002060008282546135db91906149a1565b92505081905550816002600083815260200190815260200160002060006101000a81548173ffffffffffffffffffffffffffffffffffffffff021916908373ffffffffffffffffffffffffffffffffffffffff160217905550808273ffffffffffffffffffffffffffffffffffffffff16600073ffffffffffffffffffffffffffffffffffffffff167fddf252ad1be2c89b69c2b068fc378daa952ba7f163c4a11628f55a4df523b3ef60405160405180910390a45050565b8280546136a090614bba565b90600052602060002090601f0160209004810192826136c25760008555613709565b82601f106136db57805160ff1916838001178555613709565b82800160010185558215613709579182015b828111156137085782518255916020019190600101906136ed565b5b509050613716919061371a565b5090565b5b8082111561373357600081600090555060010161371b565b5090565b600061374a613745846148fc565b6148d7565b90508281526020810184848401111561376257600080fd5b61376d848285614b78565b509392505050565b60006137886137838461492d565b6148d7565b9050828152602081018484840111156137a057600080fd5b6137ab848285614b78565b509392505050565b6000813590506137c281615686565b92915050565b6000813590506137d78161569d565b92915050565b6000815190506137ec8161569d565b92915050565b600081359050613801816156b4565b92915050565b600081359050613816816156cb565b92915050565b60008151905061382b816156cb565b92915050565b600082601f83011261384257600080fd5b8135613852848260208601613737565b91505092915050565b600082601f83011261386c57600080fd5b813561387c848260208601613775565b91505092915050565b600081359050613894816156e2565b92915050565b6000602082840312156138ac57600080fd5b60006138ba848285016137b3565b91505092915050565b600080604083850312156138d657600080fd5b60006138e4858286016137b3565b92505060206138f5858286016137b3565b9150509250929050565b60008060006060848603121561391457600080fd5b6000613922868287016137b3565b9350506020613933868287016137b3565b925050604061394486828701613885565b9150509250925092565b6000806000806080858703121561396457600080fd5b6000613972878288016137b3565b9450506020613983878288016137b3565b935050604061399487828801613885565b925050606085013567ffffffffffffffff8111156139b157600080fd5b6139bd87828801613831565b91505092959194509250565b600080604083850312156139dc57600080fd5b60006139ea858286016137b3565b92505060206139fb858286016137c8565b9150509250929050565b60008060408385031215613a1857600080fd5b6000613a26858286016137b3565b9250506020613a3785828601613885565b9150509250929050565b600060208284031215613a5357600080fd5b6000613a61848285016137dd565b91505092915050565b60008060408385031215613a7d57600080fd5b6000613a8b858286016137f2565b9250506020613a9c85828601613885565b9150509250929050565b600060208284031215613ab857600080fd5b6000613ac684828501613807565b91505092915050565b600060208284031215613ae157600080fd5b6000613aef8482850161381c565b91505092915050565b600060208284031215613b0a57600080fd5b600082013567ffffffffffffffff811115613b2457600080fd5b613b308482850161385b565b91505092915050565b600060208284031215613b4b57600080fd5b6000613b5984828501613885565b91505092915050565b60008060408385031215613b7557600080fd5b6000613b8385828601613885565b9250506020613b9485828601613885565b9150509250929050565b613ba781614aed565b82525050565b613bb681614aff565b82525050565b613bc581614b0b565b82525050565b613bdc613bd782614b0b565b614c66565b82525050565b6000613bed8261495e565b613bf78185614974565b9350613c07818560208601614b87565b613c1081614d67565b840191505092915050565b6000613c2682614969565b613c308185614985565b9350613c40818560208601614b87565b613c4981614d67565b840191505092915050565b6000613c5f82614969565b613c698185614996565b9350613c79818560208601614b87565b80840191505092915050565b6000613c92608183614996565b9150613c9d82614d78565b608182019050919050565b6000613cb5601483614985565b9150613cc082614e39565b602082019050919050565b6000613cd8600983614996565b9150613ce382614e62565b600982019050919050565b6000613cfb602583614985565b9150613d0682614e8b565b604082019050919050565b6000613d1e603283614985565b9150613d2982614eda565b604082019050919050565b6000613d41602683614985565b9150613d4c82614f29565b604082019050919050565b6000613d64601c83614985565b9150613d6f82614f78565b602082019050919050565b6000613d87601883614985565b9150613d9282614fa1565b602082019050919050565b6000613daa602483614985565b9150613db582614fca565b604082019050919050565b6000613dcd601983614985565b9150613dd882615019565b602082019050919050565b6000613df0601783614985565b9150613dfb82615042565b602082019050919050565b6000613e13601e83614985565b9150613e1e8261506b565b602082019050919050565b6000613e36602c83614985565b9150613e4182615094565b604082019050919050565b6000613e59601d83614996565b9150613e64826150e3565b601d82019050919050565b6000613e7c601283614985565b9150613e878261510c565b602082019050919050565b6000613e9f600183614996565b9150613eaa82615135565b600182019050919050565b6000613ec2600383614996565b9150613ecd8261515e565b600382019050919050565b6000613ee5603883614985565b9150613ef082615187565b604082019050919050565b6000613f08602a83614985565b9150613f13826151d6565b604082019050919050565b6000613f2b602983614985565b9150613f3682615225565b604082019050919050565b6000613f4e602e83614985565b9150613f5982615274565b604082019050919050565b6000613f71600283614996565b9150613f7c826152c3565b600282019050919050565b6000613f94602083614985565b9150613f9f826152ec565b602082019050919050565b6000613fb7603183614985565b9150613fc282615315565b604082019050919050565b6000613fda602c83614985565b9150613fe582615364565b604082019050919050565b6000613ffd602083614985565b9150614008826153b3565b602082019050919050565b6000614020602983614985565b915061402b826153dc565b604082019050919050565b6000614043603083614996565b915061404e8261542b565b603082019050919050565b6000614066602f83614985565b91506140718261547a565b604082019050919050565b6000614089601f83614985565b9150614094826154c9565b602082019050919050565b60006140ac602183614985565b91506140b7826154f2565b604082019050919050565b60006140cf601d83614996565b91506140da82615541565b601d82019050919050565b60006140f2601d83614996565b91506140fd8261556a565b601d82019050919050565b6000614115603183614985565b915061412082615593565b604082019050919050565b6000614138600283614996565b9150614143826155e2565b600282019050919050565b600061415b600683614996565b91506141668261560b565b600682019050919050565b600061417e601a83614996565b915061418982615634565b601a82019050919050565b60006141a1600983614996565b91506141ac8261565d565b600982019050919050565b6141c081614b61565b82525050565b6141d76141d282614b61565b614c70565b82525050565b60006141e98285613bcb565b6020820191506141f982846141c6565b6020820191508190509392505050565b60006142158284613c54565b915081905092915050565b600061422c8285613c54565b91506142388284613c54565b91508190509392505050565b60006142508285613c54565b915061425b82613e4c565b91506142678284613c54565b915061427282613eb5565b91508190509392505050565b600061428a8286613c54565b915061429582613e92565b91506142a18285613c54565b91506142ac82613e92565b91506142b88284613c54565b9150819050949350505050565b60006142d18284613c54565b91506142dc8261414e565b915081905092915050565b60006142f282613ccb565b91506142fd826140c2565b915061430882613c85565b91506143148284613c54565b915061431f82613f64565b915081905092915050565b600061433582614036565b91506143418285613c54565b915061434c82614194565b91506143588284613c54565b91506143638261412b565b91508190509392505050565b600061437a826140e5565b91506143868284613c54565b915081905092915050565b600061439c82614171565b91506143a88284613c54565b915081905092915050565b60006143bf82856141c6565b6020820191506143cf82846141c6565b6020820191508190509392505050565b60006020820190506143f46000830184613b9e565b92915050565b600060808201905061440f6000830187613b9e565b61441c6020830186613b9e565b61442960408301856141b7565b818103606083015261443b8184613be2565b905095945050505050565b600060408201905061445b6000830185613b9e565b61446860208301846141b7565b9392505050565b60006060820190506144846000830186613b9e565b61449160208301856141b7565b81810360408301526144a38184613be2565b9050949350505050565b60006020820190506144c26000830184613bad565b92915050565b60006020820190506144dd6000830184613bbc565b92915050565b60006040820190506144f86000830185613bbc565b61450560208301846141b7565b9392505050565b60006080820190506145216000830187613bbc565b61452e60208301866141b7565b61453b6040830185613b9e565b61454860608301846141b7565b95945050505050565b6000602082019050818103600083015261456b8184613c1b565b905092915050565b6000602082019050818103600083015261458c81613ca8565b9050919050565b600060208201905081810360008301526145ac81613cee565b9050919050565b600060208201905081810360008301526145cc81613d11565b9050919050565b600060208201905081810360008301526145ec81613d34565b9050919050565b6000602082019050818103600083015261460c81613d57565b9050919050565b6000602082019050818103600083015261462c81613d7a565b9050919050565b6000602082019050818103600083015261464c81613d9d565b9050919050565b6000602082019050818103600083015261466c81613dc0565b9050919050565b6000602082019050818103600083015261468c81613de3565b9050919050565b600060208201905081810360008301526146ac81613e06565b9050919050565b600060208201905081810360008301526146cc81613e29565b9050919050565b600060208201905081810360008301526146ec81613e6f565b9050919050565b6000602082019050818103600083015261470c81613ed8565b9050919050565b6000602082019050818103600083015261472c81613efb565b9050919050565b6000602082019050818103600083015261474c81613f1e565b9050919050565b6000602082019050818103600083015261476c81613f41565b9050919050565b6000602082019050818103600083015261478c81613f87565b9050919050565b600060208201905081810360008301526147ac81613faa565b9050919050565b600060208201905081810360008301526147cc81613fcd565b9050919050565b600060208201905081810360008301526147ec81613ff0565b9050919050565b6000602082019050818103600083015261480c81614013565b9050919050565b6000602082019050818103600083015261482c81614059565b9050919050565b6000602082019050818103600083015261484c8161407c565b9050919050565b6000602082019050818103600083015261486c8161409f565b9050919050565b6000602082019050818103600083015261488c81614108565b9050919050565b60006020820190506148a860008301846141b7565b92915050565b60006040820190506148c360008301856141b7565b6148d060208301846141b7565b9392505050565b60006148e16148f2565b90506148ed8282614bec565b919050565b6000604051905090565b600067ffffffffffffffff82111561491757614916614d38565b5b61492082614d67565b9050602081019050919050565b600067ffffffffffffffff82111561494857614947614d38565b5b61495182614d67565b9050602081019050919050565b600081519050919050565b600081519050919050565b600082825260208201905092915050565b600082825260208201905092915050565b600081905092915050565b60006149ac82614b61565b91506149b783614b61565b9250827fffffffffffffffffffffffffffffffffffffffffffffffffffffffffffffffff038211156149ec576149eb614cab565b5b828201905092915050565b6000614a0282614b6b565b9150614a0d83614b6b565b92508260ff03821115614a2357614a22614cab565b5b828201905092915050565b6000614a3982614b61565b9150614a4483614b61565b925082614a5457614a53614cda565b5b828204905092915050565b6000614a6a82614b61565b9150614a7583614b61565b9250817fffffffffffffffffffffffffffffffffffffffffffffffffffffffffffffffff0483118215151615614aae57614aad614cab565b5b828202905092915050565b6000614ac482614b61565b9150614acf83614b61565b925082821015614ae257614ae1614cab565b5b828203905092915050565b6000614af882614b41565b9050919050565b60008115159050919050565b6000819050919050565b60007fffffffff0000000000000000000000000000000000000000000000000000000082169050919050565b600073ffffffffffffffffffffffffffffffffffffffff82169050919050565b6000819050919050565b600060ff82169050919050565b82818337600083830152505050565b60005b83811015614ba5578082015181840152602081019050614b8a565b83811115614bb4576000848401525b50505050565b60006002820490506001821680614bd257607f821691505b60208210811415614be657614be5614d09565b5b50919050565b614bf582614d67565b810181811067ffffffffffffffff82111715614c1457614c13614d38565b5b80604052505050565b6000614c2882614b61565b91507fffffffffffffffffffffffffffffffffffffffffffffffffffffffffffffffff821415614c5b57614c5a614cab565b5b600182019050919050565b6000819050919050565b6000819050919050565b6000614c8582614b61565b9150614c9083614b61565b925082614ca057614c9f614cda565b5b828206905092915050565b7f4e487b7100000000000000000000000000000000000000000000000000000000600052601160045260246000fd5b7f4e487b7100000000000000000000000000000000000000000000000000000000600052601260045260246000fd5b7f4e487b7100000000000000000000000000000000000000000000000000000000600052602260045260246000fd5b7f4e487b7100000000000000000000000000000000000000000000000000000000600052604160045260246000fd5b6000601f19601f8301169050919050565b7f222c20226465736372697074696f6e223a22416e204e4654206261736564206f60008201527f6e20616e205356472074686174207761732067656e6572617465642072616e6460208201527f6f6d6c792077697468207468652068656c70206f6620436861696e4c696e6b2060408201527f56524621222c202261747472696275746573223a22222c2022696d616765223a60608201527f2200000000000000000000000000000000000000000000000000000000000000608082015250565b7f746f6b656e4964206973206e6f742076616c6964000000000000000000000000600082015250565b7f7b226e616d65223a220000000000000000000000000000000000000000000000600082015250565b7f4f6e6c792074686520726563697069656e742063616e2066696e697368206d6960008201527f6e74696e67000000000000000000000000000000000000000000000000000000602082015250565b7f4552433732313a207472616e7366657220746f206e6f6e20455243373231526560008201527f63656976657220696d706c656d656e7465720000000000000000000000000000602082015250565b7f4f776e61626c653a206e6577206f776e657220697320746865207a65726f206160008201527f6464726573730000000000000000000000000000000000000000000000000000602082015250565b7f4552433732313a20746f6b656e20616c7265616479206d696e74656400000000600082015250565b7f43616e6e6f7420657863656564206d617820616d6f756e740000000000000000600082015250565b7f4552433732313a207472616e7366657220746f20746865207a65726f2061646460008201527f7265737300000000000000000000000000000000000000000000000000000000602082015250565b7f4552433732313a20617070726f766520746f2063616c6c657200000000000000600082015250565b7f746f6b656e55524920697320616c726561647920736574000000000000000000600082015250565b7f6e65656420746f207761697420666f7220436861696e4c696e6b205652460000600082015250565b7f4552433732313a206f70657261746f7220717565727920666f72206e6f6e657860008201527f697374656e7420746f6b656e0000000000000000000000000000000000000000602082015250565b7f272066696c6c3d277472616e73706172656e7427207374726f6b653d27000000600082015250565b7f496e73756666696369656e742066756e64730000000000000000000000000000600082015250565b7f2000000000000000000000000000000000000000000000000000000000000000600082015250565b7f272f3e0000000000000000000000000000000000000000000000000000000000600082015250565b7f4552433732313a20617070726f76652063616c6c6572206973206e6f74206f7760008201527f6e6572206e6f7220617070726f76656420666f7220616c6c0000000000000000602082015250565b7f4552433732313a2062616c616e636520717565727920666f7220746865207a6560008201527f726f206164647265737300000000000000000000000000000000000000000000602082015250565b7f4552433732313a206f776e657220717565727920666f72206e6f6e657869737460008201527f656e7420746f6b656e0000000000000000000000000000000000000000000000602082015250565b7f45524337323155524953746f726167653a2055524920736574206f66206e6f6e60008201527f6578697374656e7420746f6b656e000000000000000000000000000000000000602082015250565b7f227d000000000000000000000000000000000000000000000000000000000000600082015250565b7f4552433732313a206d696e7420746f20746865207a65726f2061646472657373600082015250565b7f45524337323155524953746f726167653a2055524920717565727920666f722060008201527f6e6f6e6578697374656e7420746f6b656e000000000000000000000000000000602082015250565b7f4552433732313a20617070726f76656420717565727920666f72206e6f6e657860008201527f697374656e7420746f6b656e0000000000000000000000000000000000000000602082015250565b7f4f776e61626c653a2063616c6c6572206973206e6f7420746865206f776e6572600082015250565b7f4552433732313a207472616e73666572206f6620746f6b656e2074686174206960008201527f73206e6f74206f776e0000000000000000000000000000000000000000000000602082015250565b7f3c73766720786d6c6e733d27687474703a2f2f7777772e77332e6f72672f323060008201527f30302f73766727206865696768743d2700000000000000000000000000000000602082015250565b7f4552433732314d657461646174613a2055524920717565727920666f72206e6f60008201527f6e6578697374656e7420746f6b656e0000000000000000000000000000000000602082015250565b7f4f6e6c7920565246436f6f7264696e61746f722063616e2066756c66696c6c00600082015250565b7f4552433732313a20617070726f76616c20746f2063757272656e74206f776e6560008201527f7200000000000000000000000000000000000000000000000000000000000000602082015250565b7f52616e646f6d2047656e657261746564204f6e2d436861696e20535647000000600082015250565b7f646174613a6170706c69636174696f6e2f6a736f6e3b6261736536342c000000600082015250565b7f4552433732313a207472616e736665722063616c6c6572206973206e6f74206f60008201527f776e6572206e6f7220617070726f766564000000000000000000000000000000602082015250565b7f273e000000000000000000000000000000000000000000000000000000000000600082015250565b7f3c2f7376673e0000000000000000000000000000000000000000000000000000600082015250565b7f646174613a696d6167652f7376672b786d6c3b6261736536342c000000000000600082015250565b7f272077696474683d270000000000000000000000000000000000000000000000600082015250565b61568f81614aed565b811461569a57600080fd5b50565b6156a681614aff565b81146156b157600080fd5b50565b6156bd81614b0b565b81146156c857600080fd5b50565b6156d481614b15565b81146156df57600080fd5b50565b6156eb81614b61565b81146156f657600080fd5b5056fe4142434445464748494a4b4c4d4e4f505152535455565758595a6162636465666768696a6b6c6d6e6f707172737475767778797a303132333435363738392b2fa2646970667358221220c2d1e6bb5c58545cc4767cf2dfca2bbc83d1311125ec28b75829fd174607009064736f6c63430008020033",
  "devdoc": {
    "events": {
      "requestedRandomSVG(bytes32,uint256)": {
        "details": "indexed values are treated as log topics instead of raw data.Allows you to search for specific events rather than parsing the entire log."
      }
    },
    "kind": "dev",
    "methods": {
      "approve(address,uint256)": {
        "details": "See {IERC721-approve}."
      },
      "balanceOf(address)": {
        "details": "See {IERC721-balanceOf}."
      },
      "constructor": {
        "details": "Constructor",
        "params": {
          "_LinkToken": "address of the Link token",
          "_VRFCoordinator": "address of the VRF coordinator",
          "_fee": "uint256 ",
          "_keyHash": "bytes32 "
        }
      },
      "create()": {
        "details": "Requests ChainLink VRF number and maps the id Technically this is the NFT"
      },
      "finishMint(uint256)": {
        "details": "Savs generated SVG info to the blockchain",
        "params": {
          "_tokenId": "Token ID Requires:    - tokenId is a valid token ID   - tokenIdToRandomNumber[tokenId] is a valid random number   - tokenCounter is greater than tokenId"
        }
      },
      "formatTokenURI(string)": {
        "details": "Converts image URI to token URI",
        "params": {
          "imageURI": "image URI string"
        }
      },
      "getApproved(uint256)": {
        "details": "See {IERC721-getApproved}."
      },
      "isApprovedForAll(address,address)": {
        "details": "See {IERC721-isApprovedForAll}."
      },
      "name()": {
        "details": "See {IERC721Metadata-name}."
      },
      "owner()": {
        "details": "Returns the address of the current owner."
      },
      "ownerOf(uint256)": {
        "details": "See {IERC721-ownerOf}."
      },
      "renounceOwnership()": {
        "details": "Leaves the contract without owner. It will not be possible to call `onlyOwner` functions anymore. Can only be called by the current owner. NOTE: Renouncing ownership will leave the contract without an owner, thereby removing any functionality that is only available to the owner."
      },
      "royaltyInfo(uint256,uint256)": {
        "details": "ERC2981 Royalty Token Interface",
        "params": {
          "_salePrice": "uint256 Sale price",
          "_tokenId": "uint256 Token ID"
        }
      },
      "safeTransferFrom(address,address,uint256)": {
        "details": "See {IERC721-safeTransferFrom}."
      },
      "safeTransferFrom(address,address,uint256,bytes)": {
        "details": "See {IERC721-safeTransferFrom}."
      },
      "setApprovalForAll(address,bool)": {
        "details": "See {IERC721-setApprovalForAll}."
      },
      "svgToImageURI(string)": {
        "details": "Converts SVG to image URI with base64 encoding",
        "params": {
          "svg": "SVG string"
        }
      },
      "symbol()": {
        "details": "See {IERC721Metadata-symbol}."
      },
      "tokenURI(uint256)": {
        "details": "See {IERC721Metadata-tokenURI}."
      },
      "transferFrom(address,address,uint256)": {
        "details": "See {IERC721-transferFrom}."
      },
      "transferOwnership(address)": {
        "details": "Transfers ownership of the contract to a new account (`newOwner`). Can only be called by the current owner."
      },
      "withdraw()": {
        "details": "allows the owner to withdraw funds"
      }
    },
    "version": 1
  },
  "userdoc": {
    "kind": "user",
    "methods": {
      "setVRFFee(uint256)": {
        "notice": "Function to handle changing the VRF coordinator fee"
      }
    },
    "version": 1
  },
  "storageLayout": {
    "storage": [
      {
        "astId": 418,
        "contract": "contracts/RandomOnChainSVG.sol:RandomOnChainSVG",
        "label": "_name",
        "offset": 0,
        "slot": "0",
        "type": "t_string_storage"
      },
      {
        "astId": 420,
        "contract": "contracts/RandomOnChainSVG.sol:RandomOnChainSVG",
        "label": "_symbol",
        "offset": 0,
        "slot": "1",
        "type": "t_string_storage"
      },
      {
        "astId": 424,
        "contract": "contracts/RandomOnChainSVG.sol:RandomOnChainSVG",
        "label": "_owners",
        "offset": 0,
        "slot": "2",
        "type": "t_mapping(t_uint256,t_address)"
      },
      {
        "astId": 428,
        "contract": "contracts/RandomOnChainSVG.sol:RandomOnChainSVG",
        "label": "_balances",
        "offset": 0,
        "slot": "3",
        "type": "t_mapping(t_address,t_uint256)"
      },
      {
        "astId": 432,
        "contract": "contracts/RandomOnChainSVG.sol:RandomOnChainSVG",
        "label": "_tokenApprovals",
        "offset": 0,
        "slot": "4",
        "type": "t_mapping(t_uint256,t_address)"
      },
      {
        "astId": 438,
        "contract": "contracts/RandomOnChainSVG.sol:RandomOnChainSVG",
        "label": "_operatorApprovals",
        "offset": 0,
        "slot": "5",
        "type": "t_mapping(t_address,t_mapping(t_address,t_bool))"
      },
      {
        "astId": 1370,
        "contract": "contracts/RandomOnChainSVG.sol:RandomOnChainSVG",
        "label": "_tokenURIs",
        "offset": 0,
        "slot": "6",
        "type": "t_mapping(t_uint256,t_string_storage)"
      },
      {
        "astId": 79,
        "contract": "contracts/RandomOnChainSVG.sol:RandomOnChainSVG",
        "label": "nonces",
        "offset": 0,
        "slot": "7",
        "type": "t_mapping(t_bytes32,t_uint256)"
      },
      {
        "astId": 273,
        "contract": "contracts/RandomOnChainSVG.sol:RandomOnChainSVG",
        "label": "_owner",
        "offset": 0,
        "slot": "8",
        "type": "t_address"
      },
      {
        "astId": 2202,
        "contract": "contracts/RandomOnChainSVG.sol:RandomOnChainSVG",
        "label": "keyHash",
        "offset": 0,
        "slot": "9",
        "type": "t_bytes32"
      },
      {
        "astId": 2204,
        "contract": "contracts/RandomOnChainSVG.sol:RandomOnChainSVG",
        "label": "fee",
        "offset": 0,
        "slot": "10",
        "type": "t_uint256"
      },
      {
        "astId": 2206,
        "contract": "contracts/RandomOnChainSVG.sol:RandomOnChainSVG",
        "label": "tokenCounter",
        "offset": 0,
        "slot": "11",
        "type": "t_uint256"
      },
      {
        "astId": 2209,
        "contract": "contracts/RandomOnChainSVG.sol:RandomOnChainSVG",
        "label": "price",
        "offset": 0,
        "slot": "12",
        "type": "t_uint256"
      },
      {
        "astId": 2211,
        "contract": "contracts/RandomOnChainSVG.sol:RandomOnChainSVG",
        "label": "_recipient",
        "offset": 0,
        "slot": "13",
        "type": "t_address"
      },
      {
        "astId": 2214,
        "contract": "contracts/RandomOnChainSVG.sol:RandomOnChainSVG",
        "label": "maxAmount",
        "offset": 0,
        "slot": "14",
        "type": "t_uint256"
      },
      {
        "astId": 2229,
        "contract": "contracts/RandomOnChainSVG.sol:RandomOnChainSVG",
        "label": "pathCommands",
        "offset": 0,
        "slot": "15",
        "type": "t_array(t_string_storage)dyn_storage"
      },
      {
        "astId": 2241,
        "contract": "contracts/RandomOnChainSVG.sol:RandomOnChainSVG",
        "label": "colors",
        "offset": 0,
        "slot": "16",
        "type": "t_array(t_string_storage)dyn_storage"
      },
      {
        "astId": 2245,
        "contract": "contracts/RandomOnChainSVG.sol:RandomOnChainSVG",
        "label": "requestIdToSender",
        "offset": 0,
        "slot": "17",
        "type": "t_mapping(t_bytes32,t_address)"
      },
      {
        "astId": 2249,
        "contract": "contracts/RandomOnChainSVG.sol:RandomOnChainSVG",
        "label": "requestIdToTokenId",
        "offset": 0,
        "slot": "18",
        "type": "t_mapping(t_bytes32,t_uint256)"
      },
      {
        "astId": 2253,
        "contract": "contracts/RandomOnChainSVG.sol:RandomOnChainSVG",
        "label": "tokenIdToRandomNumber",
        "offset": 0,
        "slot": "19",
        "type": "t_mapping(t_uint256,t_uint256)"
      },
      {
        "astId": 2257,
        "contract": "contracts/RandomOnChainSVG.sol:RandomOnChainSVG",
        "label": "tokenIdToRecipient",
        "offset": 0,
        "slot": "20",
        "type": "t_mapping(t_uint256,t_address)"
      }
    ],
    "types": {
      "t_address": {
        "encoding": "inplace",
        "label": "address",
        "numberOfBytes": "20"
      },
      "t_array(t_string_storage)dyn_storage": {
        "base": "t_string_storage",
        "encoding": "dynamic_array",
        "label": "string[]",
        "numberOfBytes": "32"
      },
      "t_bool": {
        "encoding": "inplace",
        "label": "bool",
        "numberOfBytes": "1"
      },
      "t_bytes32": {
        "encoding": "inplace",
        "label": "bytes32",
        "numberOfBytes": "32"
      },
      "t_mapping(t_address,t_bool)": {
        "encoding": "mapping",
        "key": "t_address",
        "label": "mapping(address => bool)",
        "numberOfBytes": "32",
        "value": "t_bool"
      },
      "t_mapping(t_address,t_mapping(t_address,t_bool))": {
        "encoding": "mapping",
        "key": "t_address",
        "label": "mapping(address => mapping(address => bool))",
        "numberOfBytes": "32",
        "value": "t_mapping(t_address,t_bool)"
      },
      "t_mapping(t_address,t_uint256)": {
        "encoding": "mapping",
        "key": "t_address",
        "label": "mapping(address => uint256)",
        "numberOfBytes": "32",
        "value": "t_uint256"
      },
      "t_mapping(t_bytes32,t_address)": {
        "encoding": "mapping",
        "key": "t_bytes32",
        "label": "mapping(bytes32 => address)",
        "numberOfBytes": "32",
        "value": "t_address"
      },
      "t_mapping(t_bytes32,t_uint256)": {
        "encoding": "mapping",
        "key": "t_bytes32",
        "label": "mapping(bytes32 => uint256)",
        "numberOfBytes": "32",
        "value": "t_uint256"
      },
      "t_mapping(t_uint256,t_address)": {
        "encoding": "mapping",
        "key": "t_uint256",
        "label": "mapping(uint256 => address)",
        "numberOfBytes": "32",
        "value": "t_address"
      },
      "t_mapping(t_uint256,t_string_storage)": {
        "encoding": "mapping",
        "key": "t_uint256",
        "label": "mapping(uint256 => string)",
        "numberOfBytes": "32",
        "value": "t_string_storage"
      },
      "t_mapping(t_uint256,t_uint256)": {
        "encoding": "mapping",
        "key": "t_uint256",
        "label": "mapping(uint256 => uint256)",
        "numberOfBytes": "32",
        "value": "t_uint256"
      },
      "t_string_storage": {
        "encoding": "bytes",
        "label": "string",
        "numberOfBytes": "32"
      },
      "t_uint256": {
        "encoding": "inplace",
        "label": "uint256",
        "numberOfBytes": "32"
      }
    }
  }
}