{
  "address": "0x778F98c6d879C1C36e8f993043b58F1E6ca49E38",
  "abi": [
    {
      "inputs": [],
      "stateMutability": "nonpayable",
      "type": "constructor"
    },
    {
      "anonymous": false,
      "inputs": [
        {
          "indexed": true,
          "internalType": "address",
          "name": "owner",
          "type": "address"
        },
        {
          "indexed": true,
          "internalType": "address",
          "name": "approved",
          "type": "address"
        },
        {
          "indexed": true,
          "internalType": "uint256",
          "name": "tokenId",
          "type": "uint256"
        }
      ],
      "name": "Approval",
      "type": "event"
    },
    {
      "anonymous": false,
      "inputs": [
        {
          "indexed": true,
          "internalType": "address",
          "name": "owner",
          "type": "address"
        },
        {
          "indexed": true,
          "internalType": "address",
          "name": "operator",
          "type": "address"
        },
        {
          "indexed": false,
          "internalType": "bool",
          "name": "approved",
          "type": "bool"
        }
      ],
      "name": "ApprovalForAll",
      "type": "event"
    },
    {
      "anonymous": false,
      "inputs": [
        {
          "indexed": true,
          "internalType": "uint256",
          "name": "tokenId",
          "type": "uint256"
        },
        {
          "indexed": false,
          "internalType": "string",
          "name": "tokenURI",
          "type": "string"
        }
      ],
      "name": "CreatedSVGNFT",
      "type": "event"
    },
    {
      "anonymous": false,
      "inputs": [
        {
          "indexed": true,
          "internalType": "address",
          "name": "previousOwner",
          "type": "address"
        },
        {
          "indexed": true,
          "internalType": "address",
          "name": "newOwner",
          "type": "address"
        }
      ],
      "name": "OwnershipTransferred",
      "type": "event"
    },
    {
      "anonymous": false,
      "inputs": [
        {
          "indexed": true,
          "internalType": "address",
          "name": "from",
          "type": "address"
        },
        {
          "indexed": true,
          "internalType": "address",
          "name": "to",
          "type": "address"
        },
        {
          "indexed": true,
          "internalType": "uint256",
          "name": "tokenId",
          "type": "uint256"
        }
      ],
      "name": "Transfer",
      "type": "event"
    },
    {
      "inputs": [
        {
          "internalType": "address",
          "name": "to",
          "type": "address"
        },
        {
          "internalType": "uint256",
          "name": "tokenId",
          "type": "uint256"
        }
      ],
      "name": "approve",
      "outputs": [],
      "stateMutability": "nonpayable",
      "type": "function"
    },
    {
      "inputs": [
        {
          "internalType": "address",
          "name": "owner",
          "type": "address"
        }
      ],
      "name": "balanceOf",
      "outputs": [
        {
          "internalType": "uint256",
          "name": "",
          "type": "uint256"
        }
      ],
      "stateMutability": "view",
      "type": "function"
    },
    {
      "inputs": [
        {
          "internalType": "string",
          "name": "svg",
          "type": "string"
        }
      ],
      "name": "create",
      "outputs": [],
      "stateMutability": "nonpayable",
      "type": "function"
    },
    {
      "inputs": [
        {
          "internalType": "string",
          "name": "imageURI",
          "type": "string"
        }
      ],
      "name": "formatTokenURI",
      "outputs": [
        {
          "internalType": "string",
          "name": "",
          "type": "string"
        }
      ],
      "stateMutability": "pure",
      "type": "function"
    },
    {
      "inputs": [
        {
          "internalType": "uint256",
          "name": "tokenId",
          "type": "uint256"
        }
      ],
      "name": "getApproved",
      "outputs": [
        {
          "internalType": "address",
          "name": "",
          "type": "address"
        }
      ],
      "stateMutability": "view",
      "type": "function"
    },
    {
      "inputs": [
        {
          "internalType": "address",
          "name": "owner",
          "type": "address"
        },
        {
          "internalType": "address",
          "name": "operator",
          "type": "address"
        }
      ],
      "name": "isApprovedForAll",
      "outputs": [
        {
          "internalType": "bool",
          "name": "",
          "type": "bool"
        }
      ],
      "stateMutability": "view",
      "type": "function"
    },
    {
      "inputs": [],
      "name": "name",
      "outputs": [
        {
          "internalType": "string",
          "name": "",
          "type": "string"
        }
      ],
      "stateMutability": "view",
      "type": "function"
    },
    {
      "inputs": [],
      "name": "owner",
      "outputs": [
        {
          "internalType": "address",
          "name": "",
          "type": "address"
        }
      ],
      "stateMutability": "view",
      "type": "function"
    },
    {
      "inputs": [
        {
          "internalType": "uint256",
          "name": "tokenId",
          "type": "uint256"
        }
      ],
      "name": "ownerOf",
      "outputs": [
        {
          "internalType": "address",
          "name": "",
          "type": "address"
        }
      ],
      "stateMutability": "view",
      "type": "function"
    },
    {
      "inputs": [],
      "name": "renounceOwnership",
      "outputs": [],
      "stateMutability": "nonpayable",
      "type": "function"
    },
    {
      "inputs": [
        {
          "internalType": "address",
          "name": "from",
          "type": "address"
        },
        {
          "internalType": "address",
          "name": "to",
          "type": "address"
        },
        {
          "internalType": "uint256",
          "name": "tokenId",
          "type": "uint256"
        }
      ],
      "name": "safeTransferFrom",
      "outputs": [],
      "stateMutability": "nonpayable",
      "type": "function"
    },
    {
      "inputs": [
        {
          "internalType": "address",
          "name": "from",
          "type": "address"
        },
        {
          "internalType": "address",
          "name": "to",
          "type": "address"
        },
        {
          "internalType": "uint256",
          "name": "tokenId",
          "type": "uint256"
        },
        {
          "internalType": "bytes",
          "name": "_data",
          "type": "bytes"
        }
      ],
      "name": "safeTransferFrom",
      "outputs": [],
      "stateMutability": "nonpayable",
      "type": "function"
    },
    {
      "inputs": [
        {
          "internalType": "address",
          "name": "operator",
          "type": "address"
        },
        {
          "internalType": "bool",
          "name": "approved",
          "type": "bool"
        }
      ],
      "name": "setApprovalForAll",
      "outputs": [],
      "stateMutability": "nonpayable",
      "type": "function"
    },
    {
      "inputs": [
        {
          "internalType": "bytes4",
          "name": "interfaceId",
          "type": "bytes4"
        }
      ],
      "name": "supportsInterface",
      "outputs": [
        {
          "internalType": "bool",
          "name": "",
          "type": "bool"
        }
      ],
      "stateMutability": "view",
      "type": "function"
    },
    {
      "inputs": [
        {
          "internalType": "string",
          "name": "svg",
          "type": "string"
        }
      ],
      "name": "svgToImageURI",
      "outputs": [
        {
          "internalType": "string",
          "name": "",
          "type": "string"
        }
      ],
      "stateMutability": "pure",
      "type": "function"
    },
    {
      "inputs": [],
      "name": "symbol",
      "outputs": [
        {
          "internalType": "string",
          "name": "",
          "type": "string"
        }
      ],
      "stateMutability": "view",
      "type": "function"
    },
    {
      "inputs": [],
      "name": "tokenCounter",
      "outputs": [
        {
          "internalType": "uint256",
          "name": "",
          "type": "uint256"
        }
      ],
      "stateMutability": "view",
      "type": "function"
    },
    {
      "inputs": [
        {
          "internalType": "uint256",
          "name": "tokenId",
          "type": "uint256"
        }
      ],
      "name": "tokenURI",
      "outputs": [
        {
          "internalType": "string",
          "name": "",
          "type": "string"
        }
      ],
      "stateMutability": "view",
      "type": "function"
    },
    {
      "inputs": [
        {
          "internalType": "address",
          "name": "from",
          "type": "address"
        },
        {
          "internalType": "address",
          "name": "to",
          "type": "address"
        },
        {
          "internalType": "uint256",
          "name": "tokenId",
          "type": "uint256"
        }
      ],
      "name": "transferFrom",
      "outputs": [],
      "stateMutability": "nonpayable",
      "type": "function"
    },
    {
      "inputs": [
        {
          "internalType": "address",
          "name": "newOwner",
          "type": "address"
        }
      ],
      "name": "transferOwnership",
      "outputs": [],
      "stateMutability": "nonpayable",
      "type": "function"
    }
  ],
  "transactionHash": "0x31954950e9720374d7845711a117c6ede266a84323468182df24f55a9ca51046",
  "args": [],
  "numDeployments": 1,
  "solcInputHash": "856a8c64a69bdd2086b7621af89194e1",
  "bytecode": "0x60806040523480156200001157600080fd5b506040518060400160405280600781526020017f535647204e4654000000000000000000000000000000000000000000000000008152506040518060400160405280600681526020017f7376674e46540000000000000000000000000000000000000000000000000000815250816000908051906020019062000096929190620001ae565b508060019080519060200190620000af929190620001ae565b505050620000d2620000c6620000e060201b60201c565b620000e860201b60201c565b6000600881905550620002c3565b600033905090565b6000600760009054906101000a900473ffffffffffffffffffffffffffffffffffffffff16905081600760006101000a81548173ffffffffffffffffffffffffffffffffffffffff021916908373ffffffffffffffffffffffffffffffffffffffff1602179055508173ffffffffffffffffffffffffffffffffffffffff168173ffffffffffffffffffffffffffffffffffffffff167f8be0079c531659141344cd1fd0a4f28419497f9722a3daafe3b4186f6b6457e060405160405180910390a35050565b828054620001bc906200025e565b90600052602060002090601f016020900481019282620001e057600085556200022c565b82601f10620001fb57805160ff19168380011785556200022c565b828001600101855582156200022c579182015b828111156200022b5782518255916020019190600101906200020e565b5b5090506200023b91906200023f565b5090565b5b808211156200025a57600081600090555060010162000240565b5090565b600060028204905060018216806200027757607f821691505b602082108114156200028e576200028d62000294565b5b50919050565b7f4e487b7100000000000000000000000000000000000000000000000000000000600052602260045260246000fd5b6135f080620002d36000396000f3fe608060405234801561001057600080fd5b506004361061012c5760003560e01c806371aee193116100ad578063b88d4fde11610071578063b88d4fde14610341578063c87b56dd1461035d578063d082e3811461038d578063e985e9c5146103ab578063f2fde38b146103db5761012c565b806371aee1931461029d5780638da5cb5b146102cd57806395d89b41146102eb578063a22cb46514610309578063b6a46b3b146103255761012c565b806330d871c6116100f457806330d871c6146101e757806342842e0e146102175780636352211e1461023357806370a0823114610263578063715018a6146102935761012c565b806301ffc9a71461013157806306fdde0314610161578063081812fc1461017f578063095ea7b3146101af57806323b872dd146101cb575b600080fd5b61014b60048036038101906101469190612212565b6103f7565b604051610158919061280f565b60405180910390f35b6101696104d9565b604051610176919061282a565b60405180910390f35b610199600480360381019061019491906122a5565b61056b565b6040516101a691906127a8565b60405180910390f35b6101c960048036038101906101c491906121d6565b6105f0565b005b6101e560048036038101906101e091906120d0565b610708565b005b61020160048036038101906101fc9190612264565b610768565b60405161020e919061282a565b60405180910390f35b610231600480360381019061022c91906120d0565b6107b8565b005b61024d600480360381019061024891906122a5565b6107d8565b60405161025a91906127a8565b60405180910390f35b61027d6004803603810190610278919061206b565b61088a565b60405161028a9190612a8c565b60405180910390f35b61029b610942565b005b6102b760048036038101906102b29190612264565b6109ca565b6040516102c4919061282a565b60405180910390f35b6102d5610a1a565b6040516102e291906127a8565b60405180910390f35b6102f3610a44565b604051610300919061282a565b60405180910390f35b610323600480360381019061031e919061219a565b610ad6565b005b61033f600480360381019061033a9190612264565b610aec565b005b61035b6004803603810190610356919061211f565b610b75565b005b610377600480360381019061037291906122a5565b610bd7565b604051610384919061282a565b60405180910390f35b610395610d29565b6040516103a29190612a8c565b60405180910390f35b6103c560048036038101906103c09190612094565b610d2f565b6040516103d2919061280f565b60405180910390f35b6103f560048036038101906103f0919061206b565b610dc3565b005b60007f80ac58cd000000000000000000000000000000000000000000000000000000007bffffffffffffffffffffffffffffffffffffffffffffffffffffffff1916827bffffffffffffffffffffffffffffffffffffffffffffffffffffffff191614806104c257507f5b5e139f000000000000000000000000000000000000000000000000000000007bffffffffffffffffffffffffffffffffffffffffffffffffffffffff1916827bffffffffffffffffffffffffffffffffffffffffffffffffffffffff1916145b806104d257506104d182610ebb565b5b9050919050565b6060600080546104e890612d3c565b80601f016020809104026020016040519081016040528092919081815260200182805461051490612d3c565b80156105615780601f1061053657610100808354040283529160200191610561565b820191906000526020600020905b81548152906001019060200180831161054457829003601f168201915b5050505050905090565b600061057682610f25565b6105b5576040517f08c379a00000000000000000000000000000000000000000000000000000000081526004016105ac906129cc565b60405180910390fd5b6004600083815260200190815260200160002060009054906101000a900473ffffffffffffffffffffffffffffffffffffffff169050919050565b60006105fb826107d8565b90508073ffffffffffffffffffffffffffffffffffffffff168373ffffffffffffffffffffffffffffffffffffffff16141561066c576040517f08c379a000000000000000000000000000000000000000000000000000000000815260040161066390612a4c565b60405180910390fd5b8073ffffffffffffffffffffffffffffffffffffffff1661068b610f91565b73ffffffffffffffffffffffffffffffffffffffff1614806106ba57506106b9816106b4610f91565b610d2f565b5b6106f9576040517f08c379a00000000000000000000000000000000000000000000000000000000081526004016106f09061290c565b60405180910390fd5b6107038383610f99565b505050565b610719610713610f91565b82611052565b610758576040517f08c379a000000000000000000000000000000000000000000000000000000000815260040161074f90612a6c565b60405180910390fd5b610763838383611130565b505050565b60606107928260405160200161077e91906126e6565b60405160208183030381529060405261138c565b6040516020016107a29190612786565b6040516020818303038152906040529050919050565b6107d383838360405180602001604052806000815250610b75565b505050565b6000806002600084815260200190815260200160002060009054906101000a900473ffffffffffffffffffffffffffffffffffffffff169050600073ffffffffffffffffffffffffffffffffffffffff168173ffffffffffffffffffffffffffffffffffffffff161415610881576040517f08c379a00000000000000000000000000000000000000000000000000000000081526004016108789061294c565b60405180910390fd5b80915050919050565b60008073ffffffffffffffffffffffffffffffffffffffff168273ffffffffffffffffffffffffffffffffffffffff1614156108fb576040517f08c379a00000000000000000000000000000000000000000000000000000000081526004016108f29061292c565b60405180910390fd5b600360008373ffffffffffffffffffffffffffffffffffffffff1673ffffffffffffffffffffffffffffffffffffffff168152602001908152602001600020549050919050565b61094a610f91565b73ffffffffffffffffffffffffffffffffffffffff16610968610a1a565b73ffffffffffffffffffffffffffffffffffffffff16146109be576040517f08c379a00000000000000000000000000000000000000000000000000000000081526004016109b5906129ec565b60405180910390fd5b6109c8600061152b565b565b60606109f4826040516020016109e09190612721565b60405160208183030381529060405261138c565b604051602001610a049190612764565b6040516020818303038152906040529050919050565b6000600760009054906101000a900473ffffffffffffffffffffffffffffffffffffffff16905090565b606060018054610a5390612d3c565b80601f0160208091040260200160405190810160405280929190818152602001828054610a7f90612d3c565b8015610acc5780601f10610aa157610100808354040283529160200191610acc565b820191906000526020600020905b815481529060010190602001808311610aaf57829003601f168201915b5050505050905090565b610ae8610ae1610f91565b83836115f1565b5050565b610af83360085461175e565b6000610b0382610768565b90506000610b10826109ca565b9050610b1e6008548261177c565b60086000815480929190610b3190612d9f565b91905055506008547ff5acc616aa8ecd00e5d76674d7812f9c3c3571d662c9fba4499deefa6d0be12d82604051610b68919061282a565b60405180910390a2505050565b610b86610b80610f91565b83611052565b610bc5576040517f08c379a0000000000000000000000000000000000000000000000000000000008152600401610bbc90612a6c565b60405180910390fd5b610bd1848484846117f0565b50505050565b6060610be282610f25565b610c21576040517f08c379a0000000000000000000000000000000000000000000000000000000008152600401610c18906129ac565b60405180910390fd5b6000600660008481526020019081526020016000208054610c4190612d3c565b80601f0160208091040260200160405190810160405280929190818152602001828054610c6d90612d3c565b8015610cba5780601f10610c8f57610100808354040283529160200191610cba565b820191906000526020600020905b815481529060010190602001808311610c9d57829003601f168201915b505050505090506000610ccb61184c565b9050600081511415610ce1578192505050610d24565b600082511115610d16578082604051602001610cfe9291906126fd565b60405160208183030381529060405292505050610d24565b610d1f84611863565b925050505b919050565b60085481565b6000600560008473ffffffffffffffffffffffffffffffffffffffff1673ffffffffffffffffffffffffffffffffffffffff16815260200190815260200160002060008373ffffffffffffffffffffffffffffffffffffffff1673ffffffffffffffffffffffffffffffffffffffff16815260200190815260200160002060009054906101000a900460ff16905092915050565b610dcb610f91565b73ffffffffffffffffffffffffffffffffffffffff16610de9610a1a565b73ffffffffffffffffffffffffffffffffffffffff1614610e3f576040517f08c379a0000000000000000000000000000000000000000000000000000000008152600401610e36906129ec565b60405180910390fd5b600073ffffffffffffffffffffffffffffffffffffffff168173ffffffffffffffffffffffffffffffffffffffff161415610eaf576040517f08c379a0000000000000000000000000000000000000000000000000000000008152600401610ea69061286c565b60405180910390fd5b610eb88161152b565b50565b60007f01ffc9a7000000000000000000000000000000000000000000000000000000007bffffffffffffffffffffffffffffffffffffffffffffffffffffffff1916827bffffffffffffffffffffffffffffffffffffffffffffffffffffffff1916149050919050565b60008073ffffffffffffffffffffffffffffffffffffffff166002600084815260200190815260200160002060009054906101000a900473ffffffffffffffffffffffffffffffffffffffff1673ffffffffffffffffffffffffffffffffffffffff1614159050919050565b600033905090565b816004600083815260200190815260200160002060006101000a81548173ffffffffffffffffffffffffffffffffffffffff021916908373ffffffffffffffffffffffffffffffffffffffff160217905550808273ffffffffffffffffffffffffffffffffffffffff1661100c836107d8565b73ffffffffffffffffffffffffffffffffffffffff167f8c5be1e5ebec7d5bd14f71427d1e84f3dd0314c0f7b2291e5b200ac8c7c3b92560405160405180910390a45050565b600061105d82610f25565b61109c576040517f08c379a0000000000000000000000000000000000000000000000000000000008152600401611093906128ec565b60405180910390fd5b60006110a7836107d8565b90508073ffffffffffffffffffffffffffffffffffffffff168473ffffffffffffffffffffffffffffffffffffffff16148061111657508373ffffffffffffffffffffffffffffffffffffffff166110fe8461056b565b73ffffffffffffffffffffffffffffffffffffffff16145b8061112757506111268185610d2f565b5b91505092915050565b8273ffffffffffffffffffffffffffffffffffffffff16611150826107d8565b73ffffffffffffffffffffffffffffffffffffffff16146111a6576040517f08c379a000000000000000000000000000000000000000000000000000000000815260040161119d90612a0c565b60405180910390fd5b600073ffffffffffffffffffffffffffffffffffffffff168273ffffffffffffffffffffffffffffffffffffffff161415611216576040517f08c379a000000000000000000000000000000000000000000000000000000000815260040161120d906128ac565b60405180910390fd5b61122183838361190a565b61122c600082610f99565b6001600360008573ffffffffffffffffffffffffffffffffffffffff1673ffffffffffffffffffffffffffffffffffffffff168152602001908152602001600020600082825461127c9190612c52565b925050819055506001600360008473ffffffffffffffffffffffffffffffffffffffff1673ffffffffffffffffffffffffffffffffffffffff16815260200190815260200160002060008282546112d39190612b71565b92505081905550816002600083815260200190815260200160002060006101000a81548173ffffffffffffffffffffffffffffffffffffffff021916908373ffffffffffffffffffffffffffffffffffffffff160217905550808273ffffffffffffffffffffffffffffffffffffffff168473ffffffffffffffffffffffffffffffffffffffff167fddf252ad1be2c89b69c2b068fc378daa952ba7f163c4a11628f55a4df523b3ef60405160405180910390a4505050565b60606000825114156113af57604051806020016040528060008152509050611526565b600060405180606001604052806040815260200161357b60409139905060006003600285516113de9190612b71565b6113e89190612bc7565b60046113f49190612bf8565b905060006020826114059190612b71565b67ffffffffffffffff811115611444577f4e487b7100000000000000000000000000000000000000000000000000000000600052604160045260246000fd5b6040519080825280601f01601f1916602001820160405280156114765781602001600182028036833780820191505090505b509050818152600183018586518101602084015b818310156114e5576003830192508251603f8160121c168501518253600182019150603f81600c1c168501518253600182019150603f8160061c168501518253600182019150603f811685015182536001820191505061148a565b6003895106600181146114ff576002811461150f5761151a565b613d3d60f01b600283035261151a565b603d60f81b60018303525b50505050508093505050505b919050565b6000600760009054906101000a900473ffffffffffffffffffffffffffffffffffffffff16905081600760006101000a81548173ffffffffffffffffffffffffffffffffffffffff021916908373ffffffffffffffffffffffffffffffffffffffff1602179055508173ffffffffffffffffffffffffffffffffffffffff168173ffffffffffffffffffffffffffffffffffffffff167f8be0079c531659141344cd1fd0a4f28419497f9722a3daafe3b4186f6b6457e060405160405180910390a35050565b8173ffffffffffffffffffffffffffffffffffffffff168373ffffffffffffffffffffffffffffffffffffffff161415611660576040517f08c379a0000000000000000000000000000000000000000000000000000000008152600401611657906128cc565b60405180910390fd5b80600560008573ffffffffffffffffffffffffffffffffffffffff1673ffffffffffffffffffffffffffffffffffffffff16815260200190815260200160002060008473ffffffffffffffffffffffffffffffffffffffff1673ffffffffffffffffffffffffffffffffffffffff16815260200190815260200160002060006101000a81548160ff0219169083151502179055508173ffffffffffffffffffffffffffffffffffffffff168373ffffffffffffffffffffffffffffffffffffffff167f17307eab39ab6107e8899845ad3d59bd9653f200f220920489ca2b5937696c3183604051611751919061280f565b60405180910390a3505050565b61177882826040518060200160405280600081525061190f565b5050565b61178582610f25565b6117c4576040517f08c379a00000000000000000000000000000000000000000000000000000000081526004016117bb9061296c565b60405180910390fd5b806006600084815260200190815260200160002090805190602001906117eb929190611e8f565b505050565b6117fb848484611130565b6118078484848461196a565b611846576040517f08c379a000000000000000000000000000000000000000000000000000000000815260040161183d9061284c565b60405180910390fd5b50505050565b606060405180602001604052806000815250905090565b606061186e82610f25565b6118ad576040517f08c379a00000000000000000000000000000000000000000000000000000000081526004016118a490612a2c565b60405180910390fd5b60006118b761184c565b905060008151116118d75760405180602001604052806000815250611902565b806118e184611b01565b6040516020016118f29291906126fd565b6040516020818303038152906040525b915050919050565b505050565b6119198383611cae565b611926600084848461196a565b611965576040517f08c379a000000000000000000000000000000000000000000000000000000000815260040161195c9061284c565b60405180910390fd5b505050565b600061198b8473ffffffffffffffffffffffffffffffffffffffff16611e7c565b15611af4578373ffffffffffffffffffffffffffffffffffffffff1663150b7a026119b4610f91565b8786866040518563ffffffff1660e01b81526004016119d694939291906127c3565b602060405180830381600087803b1580156119f057600080fd5b505af1925050508015611a2157506040513d601f19601f82011682018060405250810190611a1e919061223b565b60015b611aa4573d8060008114611a51576040519150601f19603f3d011682016040523d82523d6000602084013e611a56565b606091505b50600081511415611a9c576040517f08c379a0000000000000000000000000000000000000000000000000000000008152600401611a939061284c565b60405180910390fd5b805181602001fd5b63150b7a0260e01b7bffffffffffffffffffffffffffffffffffffffffffffffffffffffff1916817bffffffffffffffffffffffffffffffffffffffffffffffffffffffff191614915050611af9565b600190505b949350505050565b60606000821415611b49576040518060400160405280600181526020017f30000000000000000000000000000000000000000000000000000000000000008152509050611ca9565b600082905060005b60008214611b7b578080611b6490612d9f565b915050600a82611b749190612bc7565b9150611b51565b60008167ffffffffffffffff811115611bbd577f4e487b7100000000000000000000000000000000000000000000000000000000600052604160045260246000fd5b6040519080825280601f01601f191660200182016040528015611bef5781602001600182028036833780820191505090505b5090505b60008514611ca257600182611c089190612c52565b9150600a85611c179190612de8565b6030611c239190612b71565b60f81b818381518110611c5f577f4e487b7100000000000000000000000000000000000000000000000000000000600052603260045260246000fd5b60200101907effffffffffffffffffffffffffffffffffffffffffffffffffffffffffffff1916908160001a905350600a85611c9b9190612bc7565b9450611bf3565b8093505050505b919050565b600073ffffffffffffffffffffffffffffffffffffffff168273ffffffffffffffffffffffffffffffffffffffff161415611d1e576040517f08c379a0000000000000000000000000000000000000000000000000000000008152600401611d159061298c565b60405180910390fd5b611d2781610f25565b15611d67576040517f08c379a0000000000000000000000000000000000000000000000000000000008152600401611d5e9061288c565b60405180910390fd5b611d736000838361190a565b6001600360008473ffffffffffffffffffffffffffffffffffffffff1673ffffffffffffffffffffffffffffffffffffffff1681526020019081526020016000206000828254611dc39190612b71565b92505081905550816002600083815260200190815260200160002060006101000a81548173ffffffffffffffffffffffffffffffffffffffff021916908373ffffffffffffffffffffffffffffffffffffffff160217905550808273ffffffffffffffffffffffffffffffffffffffff16600073ffffffffffffffffffffffffffffffffffffffff167fddf252ad1be2c89b69c2b068fc378daa952ba7f163c4a11628f55a4df523b3ef60405160405180910390a45050565b600080823b905060008111915050919050565b828054611e9b90612d3c565b90600052602060002090601f016020900481019282611ebd5760008555611f04565b82601f10611ed657805160ff1916838001178555611f04565b82800160010185558215611f04579182015b82811115611f03578251825591602001919060010190611ee8565b5b509050611f119190611f15565b5090565b5b80821115611f2e576000816000905550600101611f16565b5090565b6000611f45611f4084612acc565b612aa7565b905082815260208101848484011115611f5d57600080fd5b611f68848285612cfa565b509392505050565b6000611f83611f7e84612afd565b612aa7565b905082815260208101848484011115611f9b57600080fd5b611fa6848285612cfa565b509392505050565b600081359050611fbd8161351e565b92915050565b600081359050611fd281613535565b92915050565b600081359050611fe78161354c565b92915050565b600081519050611ffc8161354c565b92915050565b600082601f83011261201357600080fd5b8135612023848260208601611f32565b91505092915050565b600082601f83011261203d57600080fd5b813561204d848260208601611f70565b91505092915050565b60008135905061206581613563565b92915050565b60006020828403121561207d57600080fd5b600061208b84828501611fae565b91505092915050565b600080604083850312156120a757600080fd5b60006120b585828601611fae565b92505060206120c685828601611fae565b9150509250929050565b6000806000606084860312156120e557600080fd5b60006120f386828701611fae565b935050602061210486828701611fae565b925050604061211586828701612056565b9150509250925092565b6000806000806080858703121561213557600080fd5b600061214387828801611fae565b945050602061215487828801611fae565b935050604061216587828801612056565b925050606085013567ffffffffffffffff81111561218257600080fd5b61218e87828801612002565b91505092959194509250565b600080604083850312156121ad57600080fd5b60006121bb85828601611fae565b92505060206121cc85828601611fc3565b9150509250929050565b600080604083850312156121e957600080fd5b60006121f785828601611fae565b925050602061220885828601612056565b9150509250929050565b60006020828403121561222457600080fd5b600061223284828501611fd8565b91505092915050565b60006020828403121561224d57600080fd5b600061225b84828501611fed565b91505092915050565b60006020828403121561227657600080fd5b600082013567ffffffffffffffff81111561229057600080fd5b61229c8482850161202c565b91505092915050565b6000602082840312156122b757600080fd5b60006122c584828501612056565b91505092915050565b6122d781612c86565b82525050565b6122e681612c98565b82525050565b60006122f782612b2e565b6123018185612b44565b9350612311818560208601612d09565b61231a81612ed5565b840191505092915050565b600061233082612b39565b61233a8185612b55565b935061234a818560208601612d09565b61235381612ed5565b840191505092915050565b600061236982612b39565b6123738185612b66565b9350612383818560208601612d09565b80840191505092915050565b600061239c600983612b66565b91506123a782612ee6565b600982019050919050565b60006123bf603283612b55565b91506123ca82612f0f565b604082019050919050565b60006123e2602683612b55565b91506123ed82612f5e565b604082019050919050565b6000612405601c83612b55565b915061241082612fad565b602082019050919050565b6000612428602483612b55565b915061243382612fd6565b604082019050919050565b600061244b601983612b55565b915061245682613025565b602082019050919050565b600061246e602c83612b55565b91506124798261304e565b604082019050919050565b6000612491603883612b55565b915061249c8261309d565b604082019050919050565b60006124b4602a83612b55565b91506124bf826130ec565b604082019050919050565b60006124d7602983612b55565b91506124e28261313b565b604082019050919050565b60006124fa602e83612b55565b91506125058261318a565b604082019050919050565b600061251d600283612b66565b9150612528826131d9565b600282019050919050565b6000612540602083612b55565b915061254b82613202565b602082019050919050565b6000612563603183612b55565b915061256e8261322b565b604082019050919050565b6000612586602c83612b55565b91506125918261327a565b604082019050919050565b60006125a9602083612b55565b91506125b4826132c9565b602082019050919050565b60006125cc602983612b55565b91506125d7826132f2565b604082019050919050565b60006125ef602f83612b55565b91506125fa82613341565b604082019050919050565b6000612612602183612b55565b915061261d82613390565b604082019050919050565b6000612635601d83612b66565b9150612640826133df565b601d82019050919050565b6000612658603183612b55565b915061266382613408565b604082019050919050565b600061267b600d83612b66565b915061268682613457565b600d82019050919050565b600061269e604683612b66565b91506126a982613480565b604682019050919050565b60006126c1601a83612b66565b91506126cc826134f5565b601a82019050919050565b6126e081612cf0565b82525050565b60006126f2828461235e565b915081905092915050565b6000612709828561235e565b9150612715828461235e565b91508190509392505050565b600061272c8261238f565b91506127378261266e565b915061274282612691565b915061274e828461235e565b915061275982612510565b915081905092915050565b600061276f82612628565b915061277b828461235e565b915081905092915050565b6000612791826126b4565b915061279d828461235e565b915081905092915050565b60006020820190506127bd60008301846122ce565b92915050565b60006080820190506127d860008301876122ce565b6127e560208301866122ce565b6127f260408301856126d7565b818103606083015261280481846122ec565b905095945050505050565b600060208201905061282460008301846122dd565b92915050565b600060208201905081810360008301526128448184612325565b905092915050565b60006020820190508181036000830152612865816123b2565b9050919050565b60006020820190508181036000830152612885816123d5565b9050919050565b600060208201905081810360008301526128a5816123f8565b9050919050565b600060208201905081810360008301526128c58161241b565b9050919050565b600060208201905081810360008301526128e58161243e565b9050919050565b6000602082019050818103600083015261290581612461565b9050919050565b6000602082019050818103600083015261292581612484565b9050919050565b60006020820190508181036000830152612945816124a7565b9050919050565b60006020820190508181036000830152612965816124ca565b9050919050565b60006020820190508181036000830152612985816124ed565b9050919050565b600060208201905081810360008301526129a581612533565b9050919050565b600060208201905081810360008301526129c581612556565b9050919050565b600060208201905081810360008301526129e581612579565b9050919050565b60006020820190508181036000830152612a058161259c565b9050919050565b60006020820190508181036000830152612a25816125bf565b9050919050565b60006020820190508181036000830152612a45816125e2565b9050919050565b60006020820190508181036000830152612a6581612605565b9050919050565b60006020820190508181036000830152612a858161264b565b9050919050565b6000602082019050612aa160008301846126d7565b92915050565b6000612ab1612ac2565b9050612abd8282612d6e565b919050565b6000604051905090565b600067ffffffffffffffff821115612ae757612ae6612ea6565b5b612af082612ed5565b9050602081019050919050565b600067ffffffffffffffff821115612b1857612b17612ea6565b5b612b2182612ed5565b9050602081019050919050565b600081519050919050565b600081519050919050565b600082825260208201905092915050565b600082825260208201905092915050565b600081905092915050565b6000612b7c82612cf0565b9150612b8783612cf0565b9250827fffffffffffffffffffffffffffffffffffffffffffffffffffffffffffffffff03821115612bbc57612bbb612e19565b5b828201905092915050565b6000612bd282612cf0565b9150612bdd83612cf0565b925082612bed57612bec612e48565b5b828204905092915050565b6000612c0382612cf0565b9150612c0e83612cf0565b9250817fffffffffffffffffffffffffffffffffffffffffffffffffffffffffffffffff0483118215151615612c4757612c46612e19565b5b828202905092915050565b6000612c5d82612cf0565b9150612c6883612cf0565b925082821015612c7b57612c7a612e19565b5b828203905092915050565b6000612c9182612cd0565b9050919050565b60008115159050919050565b60007fffffffff0000000000000000000000000000000000000000000000000000000082169050919050565b600073ffffffffffffffffffffffffffffffffffffffff82169050919050565b6000819050919050565b82818337600083830152505050565b60005b83811015612d27578082015181840152602081019050612d0c565b83811115612d36576000848401525b50505050565b60006002820490506001821680612d5457607f821691505b60208210811415612d6857612d67612e77565b5b50919050565b612d7782612ed5565b810181811067ffffffffffffffff82111715612d9657612d95612ea6565b5b80604052505050565b6000612daa82612cf0565b91507fffffffffffffffffffffffffffffffffffffffffffffffffffffffffffffffff821415612ddd57612ddc612e19565b5b600182019050919050565b6000612df382612cf0565b9150612dfe83612cf0565b925082612e0e57612e0d612e48565b5b828206905092915050565b7f4e487b7100000000000000000000000000000000000000000000000000000000600052601160045260246000fd5b7f4e487b7100000000000000000000000000000000000000000000000000000000600052601260045260246000fd5b7f4e487b7100000000000000000000000000000000000000000000000000000000600052602260045260246000fd5b7f4e487b7100000000000000000000000000000000000000000000000000000000600052604160045260246000fd5b6000601f19601f8301169050919050565b7f7b226e616d65223a220000000000000000000000000000000000000000000000600082015250565b7f4552433732313a207472616e7366657220746f206e6f6e20455243373231526560008201527f63656976657220696d706c656d656e7465720000000000000000000000000000602082015250565b7f4f776e61626c653a206e6577206f776e657220697320746865207a65726f206160008201527f6464726573730000000000000000000000000000000000000000000000000000602082015250565b7f4552433732313a20746f6b656e20616c7265616479206d696e74656400000000600082015250565b7f4552433732313a207472616e7366657220746f20746865207a65726f2061646460008201527f7265737300000000000000000000000000000000000000000000000000000000602082015250565b7f4552433732313a20617070726f766520746f2063616c6c657200000000000000600082015250565b7f4552433732313a206f70657261746f7220717565727920666f72206e6f6e657860008201527f697374656e7420746f6b656e0000000000000000000000000000000000000000602082015250565b7f4552433732313a20617070726f76652063616c6c6572206973206e6f74206f7760008201527f6e6572206e6f7220617070726f76656420666f7220616c6c0000000000000000602082015250565b7f4552433732313a2062616c616e636520717565727920666f7220746865207a6560008201527f726f206164647265737300000000000000000000000000000000000000000000602082015250565b7f4552433732313a206f776e657220717565727920666f72206e6f6e657869737460008201527f656e7420746f6b656e0000000000000000000000000000000000000000000000602082015250565b7f45524337323155524953746f726167653a2055524920736574206f66206e6f6e60008201527f6578697374656e7420746f6b656e000000000000000000000000000000000000602082015250565b7f227d000000000000000000000000000000000000000000000000000000000000600082015250565b7f4552433732313a206d696e7420746f20746865207a65726f2061646472657373600082015250565b7f45524337323155524953746f726167653a2055524920717565727920666f722060008201527f6e6f6e6578697374656e7420746f6b656e000000000000000000000000000000602082015250565b7f4552433732313a20617070726f76656420717565727920666f72206e6f6e657860008201527f697374656e7420746f6b656e0000000000000000000000000000000000000000602082015250565b7f4f776e61626c653a2063616c6c6572206973206e6f7420746865206f776e6572600082015250565b7f4552433732313a207472616e73666572206f6620746f6b656e2074686174206960008201527f73206e6f74206f776e0000000000000000000000000000000000000000000000602082015250565b7f4552433732314d657461646174613a2055524920717565727920666f72206e6f60008201527f6e6578697374656e7420746f6b656e0000000000000000000000000000000000602082015250565b7f4552433732313a20617070726f76616c20746f2063757272656e74206f776e6560008201527f7200000000000000000000000000000000000000000000000000000000000000602082015250565b7f646174613a6170706c69636174696f6e2f6a736f6e3b6261736536342c000000600082015250565b7f4552433732313a207472616e736665722063616c6c6572206973206e6f74206f60008201527f776e6572206e6f7220617070726f766564000000000000000000000000000000602082015250565b7f426173696320535647204e465400000000000000000000000000000000000000600082015250565b7f222c20226465736372697074696f6e223a22416e204e4654206261736564206f60008201527f6e20616e2053564721222c202261747472696275746573223a22222c2022696d60208201527f616765223a220000000000000000000000000000000000000000000000000000604082015250565b7f646174613a696d6167652f7376672b786d6c3b6261736536342c000000000000600082015250565b61352781612c86565b811461353257600080fd5b50565b61353e81612c98565b811461354957600080fd5b50565b61355581612ca4565b811461356057600080fd5b50565b61356c81612cf0565b811461357757600080fd5b5056fe4142434445464748494a4b4c4d4e4f505152535455565758595a6162636465666768696a6b6c6d6e6f707172737475767778797a303132333435363738392b2fa2646970667358221220233bf8007f5c147ad46fbb00932633f9753ae33dc02c5c9469081f89e091917e64736f6c63430008040033",
  "devdoc": {
    "kind": "dev",
    "methods": {
      "approve(address,uint256)": {
        "details": "See {IERC721-approve}."
      },
      "balanceOf(address)": {
        "details": "See {IERC721-balanceOf}."
      },
      "getApproved(uint256)": {
        "details": "See {IERC721-getApproved}."
      },
      "isApprovedForAll(address,address)": {
        "details": "See {IERC721-isApprovedForAll}."
      },
      "name()": {
        "details": "See {IERC721Metadata-name}."
      },
      "owner()": {
        "details": "Returns the address of the current owner."
      },
      "ownerOf(uint256)": {
        "details": "See {IERC721-ownerOf}."
      },
      "renounceOwnership()": {
        "details": "Leaves the contract without owner. It will not be possible to call `onlyOwner` functions anymore. Can only be called by the current owner. NOTE: Renouncing ownership will leave the contract without an owner, thereby removing any functionality that is only available to the owner."
      },
      "safeTransferFrom(address,address,uint256)": {
        "details": "See {IERC721-safeTransferFrom}."
      },
      "safeTransferFrom(address,address,uint256,bytes)": {
        "details": "See {IERC721-safeTransferFrom}."
      },
      "setApprovalForAll(address,bool)": {
        "details": "See {IERC721-setApprovalForAll}."
      },
      "supportsInterface(bytes4)": {
        "details": "See {IERC165-supportsInterface}."
      },
      "symbol()": {
        "details": "See {IERC721Metadata-symbol}."
      },
      "tokenURI(uint256)": {
        "details": "See {IERC721Metadata-tokenURI}."
      },
      "transferFrom(address,address,uint256)": {
        "details": "See {IERC721-transferFrom}."
      },
      "transferOwnership(address)": {
        "details": "Transfers ownership of the contract to a new account (`newOwner`). Can only be called by the current owner."
      }
    },
    "version": 1
  },
  "userdoc": {
    "kind": "user",
    "methods": {},
    "version": 1
  },
  "storageLayout": {
    "storage": [
      {
        "astId": 130,
        "contract": "contracts/SVGNFT.sol:SVGNFT",
        "label": "_name",
        "offset": 0,
        "slot": "0",
        "type": "t_string_storage"
      },
      {
        "astId": 132,
        "contract": "contracts/SVGNFT.sol:SVGNFT",
        "label": "_symbol",
        "offset": 0,
        "slot": "1",
        "type": "t_string_storage"
      },
      {
        "astId": 136,
        "contract": "contracts/SVGNFT.sol:SVGNFT",
        "label": "_owners",
        "offset": 0,
        "slot": "2",
        "type": "t_mapping(t_uint256,t_address)"
      },
      {
        "astId": 140,
        "contract": "contracts/SVGNFT.sol:SVGNFT",
        "label": "_balances",
        "offset": 0,
        "slot": "3",
        "type": "t_mapping(t_address,t_uint256)"
      },
      {
        "astId": 144,
        "contract": "contracts/SVGNFT.sol:SVGNFT",
        "label": "_tokenApprovals",
        "offset": 0,
        "slot": "4",
        "type": "t_mapping(t_uint256,t_address)"
      },
      {
        "astId": 150,
        "contract": "contracts/SVGNFT.sol:SVGNFT",
        "label": "_operatorApprovals",
        "offset": 0,
        "slot": "5",
        "type": "t_mapping(t_address,t_mapping(t_address,t_bool))"
      },
      {
        "astId": 1082,
        "contract": "contracts/SVGNFT.sol:SVGNFT",
        "label": "_tokenURIs",
        "offset": 0,
        "slot": "6",
        "type": "t_mapping(t_uint256,t_string_storage)"
      },
      {
        "astId": 7,
        "contract": "contracts/SVGNFT.sol:SVGNFT",
        "label": "_owner",
        "offset": 0,
        "slot": "7",
        "type": "t_address"
      },
      {
        "astId": 1908,
        "contract": "contracts/SVGNFT.sol:SVGNFT",
        "label": "tokenCounter",
        "offset": 0,
        "slot": "8",
        "type": "t_uint256"
      }
    ],
    "types": {
      "t_address": {
        "encoding": "inplace",
        "label": "address",
        "numberOfBytes": "20"
      },
      "t_bool": {
        "encoding": "inplace",
        "label": "bool",
        "numberOfBytes": "1"
      },
      "t_mapping(t_address,t_bool)": {
        "encoding": "mapping",
        "key": "t_address",
        "label": "mapping(address => bool)",
        "numberOfBytes": "32",
        "value": "t_bool"
      },
      "t_mapping(t_address,t_mapping(t_address,t_bool))": {
        "encoding": "mapping",
        "key": "t_address",
        "label": "mapping(address => mapping(address => bool))",
        "numberOfBytes": "32",
        "value": "t_mapping(t_address,t_bool)"
      },
      "t_mapping(t_address,t_uint256)": {
        "encoding": "mapping",
        "key": "t_address",
        "label": "mapping(address => uint256)",
        "numberOfBytes": "32",
        "value": "t_uint256"
      },
      "t_mapping(t_uint256,t_address)": {
        "encoding": "mapping",
        "key": "t_uint256",
        "label": "mapping(uint256 => address)",
        "numberOfBytes": "32",
        "value": "t_address"
      },
      "t_mapping(t_uint256,t_string_storage)": {
        "encoding": "mapping",
        "key": "t_uint256",
        "label": "mapping(uint256 => string)",
        "numberOfBytes": "32",
        "value": "t_string_storage"
      },
      "t_string_storage": {
        "encoding": "bytes",
        "label": "string",
        "numberOfBytes": "32"
      },
      "t_uint256": {
        "encoding": "inplace",
        "label": "uint256",
        "numberOfBytes": "32"
      }
    }
  }
}